{
  "contracts/deps/InitializableAdminUpgradeabilityProxy.sol": {
    "InitializableAdminUpgradeabilityProxy": {
      "abi": [
        {
          "anonymous": false,
          "inputs": [
            {
              "indexed": false,
              "internalType": "address",
              "name": "previousAdmin",
              "type": "address"
            },
            {
              "indexed": false,
              "internalType": "address",
              "name": "newAdmin",
              "type": "address"
            }
          ],
          "name": "AdminChanged",
          "type": "event"
        },
        {
          "anonymous": false,
          "inputs": [
            {
              "indexed": true,
              "internalType": "address",
              "name": "implementation",
              "type": "address"
            }
          ],
          "name": "Upgraded",
          "type": "event"
        },
        {
          "stateMutability": "payable",
          "type": "fallback"
        },
        {
          "inputs": [],
          "name": "admin",
          "outputs": [
            {
              "internalType": "address",
              "name": "",
              "type": "address"
            }
          ],
          "stateMutability": "nonpayable",
          "type": "function"
        },
        {
          "inputs": [
            {
              "internalType": "address",
              "name": "newAdmin",
              "type": "address"
            }
          ],
          "name": "changeAdmin",
          "outputs": [],
          "stateMutability": "nonpayable",
          "type": "function"
        },
        {
          "inputs": [],
          "name": "implementation",
          "outputs": [
            {
              "internalType": "address",
              "name": "",
              "type": "address"
            }
          ],
          "stateMutability": "nonpayable",
          "type": "function"
        },
        {
          "inputs": [
            {
              "internalType": "address",
              "name": "_logic",
              "type": "address"
            },
            {
              "internalType": "address",
              "name": "_admin",
              "type": "address"
            },
            {
              "internalType": "bytes",
              "name": "_data",
              "type": "bytes"
            }
          ],
          "name": "initialize",
          "outputs": [],
          "stateMutability": "payable",
          "type": "function"
        },
        {
          "inputs": [
            {
              "internalType": "address",
              "name": "_logic",
              "type": "address"
            },
            {
              "internalType": "bytes",
              "name": "_data",
              "type": "bytes"
            }
          ],
          "name": "initialize",
          "outputs": [],
          "stateMutability": "payable",
          "type": "function"
        },
        {
          "inputs": [
            {
              "internalType": "address",
              "name": "newImplementation",
              "type": "address"
            }
          ],
          "name": "upgradeTo",
          "outputs": [],
          "stateMutability": "nonpayable",
          "type": "function"
        },
        {
          "inputs": [
            {
              "internalType": "address",
              "name": "newImplementation",
              "type": "address"
            },
            {
              "internalType": "bytes",
              "name": "data",
              "type": "bytes"
            }
          ],
          "name": "upgradeToAndCall",
          "outputs": [],
          "stateMutability": "payable",
          "type": "function"
        }
      ],
      "evm": {
        "bytecode": {
          "linkReferences": {},
          "object": "608060405234801561001057600080fd5b50610a3f806100206000396000f3fe6080604052600436106100705760003560e01c80638f2839701161004e5780638f283970146100de578063cf7a1d77146100fe578063d1f5789414610111578063f851a4401461012457610070565b80633659cfe61461007a5780634f1ef2861461009a5780635c60da1b146100ad575b610078610139565b005b34801561008657600080fd5b50610078610095366004610800565b610161565b6100786100a836600461087d565b6101a3565b3480156100b957600080fd5b506100c2610252565b6040516001600160a01b03909116815260200160405180910390f35b3480156100ea57600080fd5b506100786100f9366004610800565b6102a6565b61007861010c366004610821565b6103b8565b61007861011f3660046108fb565b610458565b34801561013057600080fd5b506100c2610554565b61014161059a565b61015f61015a6000805160206109ea8339815191525490565b6105a2565b565b6000805160206109ca833981519152546001600160a01b0316336001600160a01b0316141561019857610193816105c6565b6101a0565b6101a0610139565b50565b6000805160206109ca833981519152546001600160a01b0316336001600160a01b03161415610245576101d5836105c6565b6000836001600160a01b031683836040516101f1929190610947565b600060405180830381855af49150503d806000811461022c576040519150601f19603f3d011682016040523d82523d6000602084013e610231565b606091505b505090508061023f57600080fd5b5061024d565b61024d610139565b505050565b600061026a6000805160206109ca8339815191525490565b6001600160a01b0316336001600160a01b0316141561029b576000805160206109ea833981519152545b90506102a3565b6102a3610139565b90565b6000805160206109ca833981519152546001600160a01b0316336001600160a01b03161415610198576001600160a01b0381166103495760405162461bcd60e51b815260206004820152603660248201527f43616e6e6f74206368616e6765207468652061646d696e206f6620612070726f604482015275787920746f20746865207a65726f206164647265737360501b60648201526084015b60405180910390fd5b7f7e644d79422f17c01e4894b5f4f588d331ebfa28653d42ae832dc59e38c9798f6103806000805160206109ca8339815191525490565b604080516001600160a01b03928316815291841660208301520160405180910390a1610193816000805160206109ca83398151915255565b60006103d06000805160206109ea8339815191525490565b6001600160a01b0316146103e357600080fd5b6103ed8382610458565b61041860017fb53127684a568b3173ae13b9f8a6016e243e63b6e8ee1178d6a717850b5d6104610990565b6000805160206109ca8339815191521461044257634e487b7160e01b600052600160045260246000fd5b61024d826000805160206109ca83398151915255565b60006104706000805160206109ea8339815191525490565b6001600160a01b03161461048357600080fd5b6104ae60017f360894a13ba1a3210667c828492db98dca3e2076cc3735a920a3ca505d382bbd610990565b6000805160206109ea833981519152146104d857634e487b7160e01b600052600160045260246000fd5b6104e182610606565b805115610550576000826001600160a01b0316826040516105029190610957565b600060405180830381855af49150503d806000811461053d576040519150601f19603f3d011682016040523d82523d6000602084013e610542565b606091505b505090508061024d57600080fd5b5050565b600061056c6000805160206109ca8339815191525490565b6001600160a01b0316336001600160a01b0316141561029b576000805160206109ca83398151915254610294565b61015f610693565b3660008037600080366000845af43d6000803e8080156105c1573d6000f35b3d6000fd5b6105cf81610606565b6040516001600160a01b038216907fbc7cd75a20ee27fd9adebab32041f755214dbc6bffa90cc0225b39da2e5c2d3b90600090a250565b61060f81610724565b6106815760405162461bcd60e51b815260206004820152603b60248201527f43616e6e6f742073657420612070726f787920696d706c656d656e746174696f60448201527f6e20746f2061206e6f6e2d636f6e7472616374206164647265737300000000006064820152608401610340565b6000805160206109ea83398151915255565b6000805160206109ca833981519152546001600160a01b0316336001600160a01b0316141561071f5760405162461bcd60e51b815260206004820152603260248201527f43616e6e6f742063616c6c2066616c6c6261636b2066756e6374696f6e20667260448201527137b6903a343290383937bc3c9030b236b4b760711b6064820152608401610340565b61015f565b6000813f7fc5d2460186f7233c927e7db2dcc703c0e500b653ca82273b7bfad8045d85a47081811480159061075857508115155b925050505b919050565b80356001600160a01b038116811461075d57600080fd5b600082601f830112610789578081fd5b813567ffffffffffffffff808211156107a4576107a46109b3565b604051601f8301601f19908116603f011681019082821181831017156107cc576107cc6109b3565b816040528381528660208588010111156107e4578485fd5b8360208701602083013792830160200193909352509392505050565b600060208284031215610811578081fd5b61081a82610762565b9392505050565b600080600060608486031215610835578182fd5b61083e84610762565b925061084c60208501610762565b9150604084013567ffffffffffffffff811115610867578182fd5b61087386828701610779565b9150509250925092565b600080600060408486031215610891578283fd5b61089a84610762565b9250602084013567ffffffffffffffff808211156108b6578384fd5b818601915086601f8301126108c9578384fd5b8135818111156108d7578485fd5b8760208285010111156108e8578485fd5b6020830194508093505050509250925092565b6000806040838503121561090d578182fd5b61091683610762565b9150602083013567ffffffffffffffff811115610931578182fd5b61093d85828601610779565b9150509250929050565b6000828483379101908152919050565b60008251815b81811015610977576020818601810151858301520161095d565b818111156109855782828501525b509190910192915050565b6000828210156109ae57634e487b7160e01b81526011600452602481fd5b500390565b634e487b7160e01b600052604160045260246000fdfeb53127684a568b3173ae13b9f8a6016e243e63b6e8ee1178d6a717850b5d6103360894a13ba1a3210667c828492db98dca3e2076cc3735a920a3ca505d382bbca2646970667358221220c89c1b07aad189dbe7b1ecd2774fb4ce8e403034b82bbc9b4282c7afd47572ef64736f6c63430008020033",
          "opcodes": "PUSH1 0x80 PUSH1 0x40 MSTORE CALLVALUE DUP1 ISZERO PUSH2 0x10 JUMPI PUSH1 0x0 DUP1 REVERT JUMPDEST POP PUSH2 0xA3F DUP1 PUSH2 0x20 PUSH1 0x0 CODECOPY PUSH1 0x0 RETURN INVALID PUSH1 0x80 PUSH1 0x40 MSTORE PUSH1 0x4 CALLDATASIZE LT PUSH2 0x70 JUMPI PUSH1 0x0 CALLDATALOAD PUSH1 0xE0 SHR DUP1 PUSH4 0x8F283970 GT PUSH2 0x4E JUMPI DUP1 PUSH4 0x8F283970 EQ PUSH2 0xDE JUMPI DUP1 PUSH4 0xCF7A1D77 EQ PUSH2 0xFE JUMPI DUP1 PUSH4 0xD1F57894 EQ PUSH2 0x111 JUMPI DUP1 PUSH4 0xF851A440 EQ PUSH2 0x124 JUMPI PUSH2 0x70 JUMP JUMPDEST DUP1 PUSH4 0x3659CFE6 EQ PUSH2 0x7A JUMPI DUP1 PUSH4 0x4F1EF286 EQ PUSH2 0x9A JUMPI DUP1 PUSH4 0x5C60DA1B EQ PUSH2 0xAD JUMPI JUMPDEST PUSH2 0x78 PUSH2 0x139 JUMP JUMPDEST STOP JUMPDEST CALLVALUE DUP1 ISZERO PUSH2 0x86 JUMPI PUSH1 0x0 DUP1 REVERT JUMPDEST POP PUSH2 0x78 PUSH2 0x95 CALLDATASIZE PUSH1 0x4 PUSH2 0x800 JUMP JUMPDEST PUSH2 0x161 JUMP JUMPDEST PUSH2 0x78 PUSH2 0xA8 CALLDATASIZE PUSH1 0x4 PUSH2 0x87D JUMP JUMPDEST PUSH2 0x1A3 JUMP JUMPDEST CALLVALUE DUP1 ISZERO PUSH2 0xB9 JUMPI PUSH1 0x0 DUP1 REVERT JUMPDEST POP PUSH2 0xC2 PUSH2 0x252 JUMP JUMPDEST PUSH1 0x40 MLOAD PUSH1 0x1 PUSH1 0x1 PUSH1 0xA0 SHL SUB SWAP1 SWAP2 AND DUP2 MSTORE PUSH1 0x20 ADD PUSH1 0x40 MLOAD DUP1 SWAP2 SUB SWAP1 RETURN JUMPDEST CALLVALUE DUP1 ISZERO PUSH2 0xEA JUMPI PUSH1 0x0 DUP1 REVERT JUMPDEST POP PUSH2 0x78 PUSH2 0xF9 CALLDATASIZE PUSH1 0x4 PUSH2 0x800 JUMP JUMPDEST PUSH2 0x2A6 JUMP JUMPDEST PUSH2 0x78 PUSH2 0x10C CALLDATASIZE PUSH1 0x4 PUSH2 0x821 JUMP JUMPDEST PUSH2 0x3B8 JUMP JUMPDEST PUSH2 0x78 PUSH2 0x11F CALLDATASIZE PUSH1 0x4 PUSH2 0x8FB JUMP JUMPDEST PUSH2 0x458 JUMP JUMPDEST CALLVALUE DUP1 ISZERO PUSH2 0x130 JUMPI PUSH1 0x0 DUP1 REVERT JUMPDEST POP PUSH2 0xC2 PUSH2 0x554 JUMP JUMPDEST PUSH2 0x141 PUSH2 0x59A JUMP JUMPDEST PUSH2 0x15F PUSH2 0x15A PUSH1 0x0 DUP1 MLOAD PUSH1 0x20 PUSH2 0x9EA DUP4 CODECOPY DUP2 MLOAD SWAP2 MSTORE SLOAD SWAP1 JUMP JUMPDEST PUSH2 0x5A2 JUMP JUMPDEST JUMP JUMPDEST PUSH1 0x0 DUP1 MLOAD PUSH1 0x20 PUSH2 0x9CA DUP4 CODECOPY DUP2 MLOAD SWAP2 MSTORE SLOAD PUSH1 0x1 PUSH1 0x1 PUSH1 0xA0 SHL SUB AND CALLER PUSH1 0x1 PUSH1 0x1 PUSH1 0xA0 SHL SUB AND EQ ISZERO PUSH2 0x198 JUMPI PUSH2 0x193 DUP2 PUSH2 0x5C6 JUMP JUMPDEST PUSH2 0x1A0 JUMP JUMPDEST PUSH2 0x1A0 PUSH2 0x139 JUMP JUMPDEST POP JUMP JUMPDEST PUSH1 0x0 DUP1 MLOAD PUSH1 0x20 PUSH2 0x9CA DUP4 CODECOPY DUP2 MLOAD SWAP2 MSTORE SLOAD PUSH1 0x1 PUSH1 0x1 PUSH1 0xA0 SHL SUB AND CALLER PUSH1 0x1 PUSH1 0x1 PUSH1 0xA0 SHL SUB AND EQ ISZERO PUSH2 0x245 JUMPI PUSH2 0x1D5 DUP4 PUSH2 0x5C6 JUMP JUMPDEST PUSH1 0x0 DUP4 PUSH1 0x1 PUSH1 0x1 PUSH1 0xA0 SHL SUB AND DUP4 DUP4 PUSH1 0x40 MLOAD PUSH2 0x1F1 SWAP3 SWAP2 SWAP1 PUSH2 0x947 JUMP JUMPDEST PUSH1 0x0 PUSH1 0x40 MLOAD DUP1 DUP4 SUB DUP2 DUP6 GAS DELEGATECALL SWAP2 POP POP RETURNDATASIZE DUP1 PUSH1 0x0 DUP2 EQ PUSH2 0x22C JUMPI PUSH1 0x40 MLOAD SWAP2 POP PUSH1 0x1F NOT PUSH1 0x3F RETURNDATASIZE ADD AND DUP3 ADD PUSH1 0x40 MSTORE RETURNDATASIZE DUP3 MSTORE RETURNDATASIZE PUSH1 0x0 PUSH1 0x20 DUP5 ADD RETURNDATACOPY PUSH2 0x231 JUMP JUMPDEST PUSH1 0x60 SWAP2 POP JUMPDEST POP POP SWAP1 POP DUP1 PUSH2 0x23F JUMPI PUSH1 0x0 DUP1 REVERT JUMPDEST POP PUSH2 0x24D JUMP JUMPDEST PUSH2 0x24D PUSH2 0x139 JUMP JUMPDEST POP POP POP JUMP JUMPDEST PUSH1 0x0 PUSH2 0x26A PUSH1 0x0 DUP1 MLOAD PUSH1 0x20 PUSH2 0x9CA DUP4 CODECOPY DUP2 MLOAD SWAP2 MSTORE SLOAD SWAP1 JUMP JUMPDEST PUSH1 0x1 PUSH1 0x1 PUSH1 0xA0 SHL SUB AND CALLER PUSH1 0x1 PUSH1 0x1 PUSH1 0xA0 SHL SUB AND EQ ISZERO PUSH2 0x29B JUMPI PUSH1 0x0 DUP1 MLOAD PUSH1 0x20 PUSH2 0x9EA DUP4 CODECOPY DUP2 MLOAD SWAP2 MSTORE SLOAD JUMPDEST SWAP1 POP PUSH2 0x2A3 JUMP JUMPDEST PUSH2 0x2A3 PUSH2 0x139 JUMP JUMPDEST SWAP1 JUMP JUMPDEST PUSH1 0x0 DUP1 MLOAD PUSH1 0x20 PUSH2 0x9CA DUP4 CODECOPY DUP2 MLOAD SWAP2 MSTORE SLOAD PUSH1 0x1 PUSH1 0x1 PUSH1 0xA0 SHL SUB AND CALLER PUSH1 0x1 PUSH1 0x1 PUSH1 0xA0 SHL SUB AND EQ ISZERO PUSH2 0x198 JUMPI PUSH1 0x1 PUSH1 0x1 PUSH1 0xA0 SHL SUB DUP2 AND PUSH2 0x349 JUMPI PUSH1 0x40 MLOAD PUSH3 0x461BCD PUSH1 0xE5 SHL DUP2 MSTORE PUSH1 0x20 PUSH1 0x4 DUP3 ADD MSTORE PUSH1 0x36 PUSH1 0x24 DUP3 ADD MSTORE PUSH32 0x43616E6E6F74206368616E6765207468652061646D696E206F6620612070726F PUSH1 0x44 DUP3 ADD MSTORE PUSH22 0x787920746F20746865207A65726F2061646472657373 PUSH1 0x50 SHL PUSH1 0x64 DUP3 ADD MSTORE PUSH1 0x84 ADD JUMPDEST PUSH1 0x40 MLOAD DUP1 SWAP2 SUB SWAP1 REVERT JUMPDEST PUSH32 0x7E644D79422F17C01E4894B5F4F588D331EBFA28653D42AE832DC59E38C9798F PUSH2 0x380 PUSH1 0x0 DUP1 MLOAD PUSH1 0x20 PUSH2 0x9CA DUP4 CODECOPY DUP2 MLOAD SWAP2 MSTORE SLOAD SWAP1 JUMP JUMPDEST PUSH1 0x40 DUP1 MLOAD PUSH1 0x1 PUSH1 0x1 PUSH1 0xA0 SHL SUB SWAP3 DUP4 AND DUP2 MSTORE SWAP2 DUP5 AND PUSH1 0x20 DUP4 ADD MSTORE ADD PUSH1 0x40 MLOAD DUP1 SWAP2 SUB SWAP1 LOG1 PUSH2 0x193 DUP2 PUSH1 0x0 DUP1 MLOAD PUSH1 0x20 PUSH2 0x9CA DUP4 CODECOPY DUP2 MLOAD SWAP2 MSTORE SSTORE JUMP JUMPDEST PUSH1 0x0 PUSH2 0x3D0 PUSH1 0x0 DUP1 MLOAD PUSH1 0x20 PUSH2 0x9EA DUP4 CODECOPY DUP2 MLOAD SWAP2 MSTORE SLOAD SWAP1 JUMP JUMPDEST PUSH1 0x1 PUSH1 0x1 PUSH1 0xA0 SHL SUB AND EQ PUSH2 0x3E3 JUMPI PUSH1 0x0 DUP1 REVERT JUMPDEST PUSH2 0x3ED DUP4 DUP3 PUSH2 0x458 JUMP JUMPDEST PUSH2 0x418 PUSH1 0x1 PUSH32 0xB53127684A568B3173AE13B9F8A6016E243E63B6E8EE1178D6A717850B5D6104 PUSH2 0x990 JUMP JUMPDEST PUSH1 0x0 DUP1 MLOAD PUSH1 0x20 PUSH2 0x9CA DUP4 CODECOPY DUP2 MLOAD SWAP2 MSTORE EQ PUSH2 0x442 JUMPI PUSH4 0x4E487B71 PUSH1 0xE0 SHL PUSH1 0x0 MSTORE PUSH1 0x1 PUSH1 0x4 MSTORE PUSH1 0x24 PUSH1 0x0 REVERT JUMPDEST PUSH2 0x24D DUP3 PUSH1 0x0 DUP1 MLOAD PUSH1 0x20 PUSH2 0x9CA DUP4 CODECOPY DUP2 MLOAD SWAP2 MSTORE SSTORE JUMP JUMPDEST PUSH1 0x0 PUSH2 0x470 PUSH1 0x0 DUP1 MLOAD PUSH1 0x20 PUSH2 0x9EA DUP4 CODECOPY DUP2 MLOAD SWAP2 MSTORE SLOAD SWAP1 JUMP JUMPDEST PUSH1 0x1 PUSH1 0x1 PUSH1 0xA0 SHL SUB AND EQ PUSH2 0x483 JUMPI PUSH1 0x0 DUP1 REVERT JUMPDEST PUSH2 0x4AE PUSH1 0x1 PUSH32 0x360894A13BA1A3210667C828492DB98DCA3E2076CC3735A920A3CA505D382BBD PUSH2 0x990 JUMP JUMPDEST PUSH1 0x0 DUP1 MLOAD PUSH1 0x20 PUSH2 0x9EA DUP4 CODECOPY DUP2 MLOAD SWAP2 MSTORE EQ PUSH2 0x4D8 JUMPI PUSH4 0x4E487B71 PUSH1 0xE0 SHL PUSH1 0x0 MSTORE PUSH1 0x1 PUSH1 0x4 MSTORE PUSH1 0x24 PUSH1 0x0 REVERT JUMPDEST PUSH2 0x4E1 DUP3 PUSH2 0x606 JUMP JUMPDEST DUP1 MLOAD ISZERO PUSH2 0x550 JUMPI PUSH1 0x0 DUP3 PUSH1 0x1 PUSH1 0x1 PUSH1 0xA0 SHL SUB AND DUP3 PUSH1 0x40 MLOAD PUSH2 0x502 SWAP2 SWAP1 PUSH2 0x957 JUMP JUMPDEST PUSH1 0x0 PUSH1 0x40 MLOAD DUP1 DUP4 SUB DUP2 DUP6 GAS DELEGATECALL SWAP2 POP POP RETURNDATASIZE DUP1 PUSH1 0x0 DUP2 EQ PUSH2 0x53D JUMPI PUSH1 0x40 MLOAD SWAP2 POP PUSH1 0x1F NOT PUSH1 0x3F RETURNDATASIZE ADD AND DUP3 ADD PUSH1 0x40 MSTORE RETURNDATASIZE DUP3 MSTORE RETURNDATASIZE PUSH1 0x0 PUSH1 0x20 DUP5 ADD RETURNDATACOPY PUSH2 0x542 JUMP JUMPDEST PUSH1 0x60 SWAP2 POP JUMPDEST POP POP SWAP1 POP DUP1 PUSH2 0x24D JUMPI PUSH1 0x0 DUP1 REVERT JUMPDEST POP POP JUMP JUMPDEST PUSH1 0x0 PUSH2 0x56C PUSH1 0x0 DUP1 MLOAD PUSH1 0x20 PUSH2 0x9CA DUP4 CODECOPY DUP2 MLOAD SWAP2 MSTORE SLOAD SWAP1 JUMP JUMPDEST PUSH1 0x1 PUSH1 0x1 PUSH1 0xA0 SHL SUB AND CALLER PUSH1 0x1 PUSH1 0x1 PUSH1 0xA0 SHL SUB AND EQ ISZERO PUSH2 0x29B JUMPI PUSH1 0x0 DUP1 MLOAD PUSH1 0x20 PUSH2 0x9CA DUP4 CODECOPY DUP2 MLOAD SWAP2 MSTORE SLOAD PUSH2 0x294 JUMP JUMPDEST PUSH2 0x15F PUSH2 0x693 JUMP JUMPDEST CALLDATASIZE PUSH1 0x0 DUP1 CALLDATACOPY PUSH1 0x0 DUP1 CALLDATASIZE PUSH1 0x0 DUP5 GAS DELEGATECALL RETURNDATASIZE PUSH1 0x0 DUP1 RETURNDATACOPY DUP1 DUP1 ISZERO PUSH2 0x5C1 JUMPI RETURNDATASIZE PUSH1 0x0 RETURN JUMPDEST RETURNDATASIZE PUSH1 0x0 REVERT JUMPDEST PUSH2 0x5CF DUP2 PUSH2 0x606 JUMP JUMPDEST PUSH1 0x40 MLOAD PUSH1 0x1 PUSH1 0x1 PUSH1 0xA0 SHL SUB DUP3 AND SWAP1 PUSH32 0xBC7CD75A20EE27FD9ADEBAB32041F755214DBC6BFFA90CC0225B39DA2E5C2D3B SWAP1 PUSH1 0x0 SWAP1 LOG2 POP JUMP JUMPDEST PUSH2 0x60F DUP2 PUSH2 0x724 JUMP JUMPDEST PUSH2 0x681 JUMPI PUSH1 0x40 MLOAD PUSH3 0x461BCD PUSH1 0xE5 SHL DUP2 MSTORE PUSH1 0x20 PUSH1 0x4 DUP3 ADD MSTORE PUSH1 0x3B PUSH1 0x24 DUP3 ADD MSTORE PUSH32 0x43616E6E6F742073657420612070726F787920696D706C656D656E746174696F PUSH1 0x44 DUP3 ADD MSTORE PUSH32 0x6E20746F2061206E6F6E2D636F6E747261637420616464726573730000000000 PUSH1 0x64 DUP3 ADD MSTORE PUSH1 0x84 ADD PUSH2 0x340 JUMP JUMPDEST PUSH1 0x0 DUP1 MLOAD PUSH1 0x20 PUSH2 0x9EA DUP4 CODECOPY DUP2 MLOAD SWAP2 MSTORE SSTORE JUMP JUMPDEST PUSH1 0x0 DUP1 MLOAD PUSH1 0x20 PUSH2 0x9CA DUP4 CODECOPY DUP2 MLOAD SWAP2 MSTORE SLOAD PUSH1 0x1 PUSH1 0x1 PUSH1 0xA0 SHL SUB AND CALLER PUSH1 0x1 PUSH1 0x1 PUSH1 0xA0 SHL SUB AND EQ ISZERO PUSH2 0x71F JUMPI PUSH1 0x40 MLOAD PUSH3 0x461BCD PUSH1 0xE5 SHL DUP2 MSTORE PUSH1 0x20 PUSH1 0x4 DUP3 ADD MSTORE PUSH1 0x32 PUSH1 0x24 DUP3 ADD MSTORE PUSH32 0x43616E6E6F742063616C6C2066616C6C6261636B2066756E6374696F6E206672 PUSH1 0x44 DUP3 ADD MSTORE PUSH18 0x37B6903A343290383937BC3C9030B236B4B7 PUSH1 0x71 SHL PUSH1 0x64 DUP3 ADD MSTORE PUSH1 0x84 ADD PUSH2 0x340 JUMP JUMPDEST PUSH2 0x15F JUMP JUMPDEST PUSH1 0x0 DUP2 EXTCODEHASH PUSH32 0xC5D2460186F7233C927E7DB2DCC703C0E500B653CA82273B7BFAD8045D85A470 DUP2 DUP2 EQ DUP1 ISZERO SWAP1 PUSH2 0x758 JUMPI POP DUP2 ISZERO ISZERO JUMPDEST SWAP3 POP POP POP JUMPDEST SWAP2 SWAP1 POP JUMP JUMPDEST DUP1 CALLDATALOAD PUSH1 0x1 PUSH1 0x1 PUSH1 0xA0 SHL SUB DUP2 AND DUP2 EQ PUSH2 0x75D JUMPI PUSH1 0x0 DUP1 REVERT JUMPDEST PUSH1 0x0 DUP3 PUSH1 0x1F DUP4 ADD SLT PUSH2 0x789 JUMPI DUP1 DUP2 REVERT JUMPDEST DUP2 CALLDATALOAD PUSH8 0xFFFFFFFFFFFFFFFF DUP1 DUP3 GT ISZERO PUSH2 0x7A4 JUMPI PUSH2 0x7A4 PUSH2 0x9B3 JUMP JUMPDEST PUSH1 0x40 MLOAD PUSH1 0x1F DUP4 ADD PUSH1 0x1F NOT SWAP1 DUP2 AND PUSH1 0x3F ADD AND DUP2 ADD SWAP1 DUP3 DUP3 GT DUP2 DUP4 LT OR ISZERO PUSH2 0x7CC JUMPI PUSH2 0x7CC PUSH2 0x9B3 JUMP JUMPDEST DUP2 PUSH1 0x40 MSTORE DUP4 DUP2 MSTORE DUP7 PUSH1 0x20 DUP6 DUP9 ADD ADD GT ISZERO PUSH2 0x7E4 JUMPI DUP5 DUP6 REVERT JUMPDEST DUP4 PUSH1 0x20 DUP8 ADD PUSH1 0x20 DUP4 ADD CALLDATACOPY SWAP3 DUP4 ADD PUSH1 0x20 ADD SWAP4 SWAP1 SWAP4 MSTORE POP SWAP4 SWAP3 POP POP POP JUMP JUMPDEST PUSH1 0x0 PUSH1 0x20 DUP3 DUP5 SUB SLT ISZERO PUSH2 0x811 JUMPI DUP1 DUP2 REVERT JUMPDEST PUSH2 0x81A DUP3 PUSH2 0x762 JUMP JUMPDEST SWAP4 SWAP3 POP POP POP JUMP JUMPDEST PUSH1 0x0 DUP1 PUSH1 0x0 PUSH1 0x60 DUP5 DUP7 SUB SLT ISZERO PUSH2 0x835 JUMPI DUP2 DUP3 REVERT JUMPDEST PUSH2 0x83E DUP5 PUSH2 0x762 JUMP JUMPDEST SWAP3 POP PUSH2 0x84C PUSH1 0x20 DUP6 ADD PUSH2 0x762 JUMP JUMPDEST SWAP2 POP PUSH1 0x40 DUP5 ADD CALLDATALOAD PUSH8 0xFFFFFFFFFFFFFFFF DUP2 GT ISZERO PUSH2 0x867 JUMPI DUP2 DUP3 REVERT JUMPDEST PUSH2 0x873 DUP7 DUP3 DUP8 ADD PUSH2 0x779 JUMP JUMPDEST SWAP2 POP POP SWAP3 POP SWAP3 POP SWAP3 JUMP JUMPDEST PUSH1 0x0 DUP1 PUSH1 0x0 PUSH1 0x40 DUP5 DUP7 SUB SLT ISZERO PUSH2 0x891 JUMPI DUP3 DUP4 REVERT JUMPDEST PUSH2 0x89A DUP5 PUSH2 0x762 JUMP JUMPDEST SWAP3 POP PUSH1 0x20 DUP5 ADD CALLDATALOAD PUSH8 0xFFFFFFFFFFFFFFFF DUP1 DUP3 GT ISZERO PUSH2 0x8B6 JUMPI DUP4 DUP5 REVERT JUMPDEST DUP2 DUP7 ADD SWAP2 POP DUP7 PUSH1 0x1F DUP4 ADD SLT PUSH2 0x8C9 JUMPI DUP4 DUP5 REVERT JUMPDEST DUP2 CALLDATALOAD DUP2 DUP2 GT ISZERO PUSH2 0x8D7 JUMPI DUP5 DUP6 REVERT JUMPDEST DUP8 PUSH1 0x20 DUP3 DUP6 ADD ADD GT ISZERO PUSH2 0x8E8 JUMPI DUP5 DUP6 REVERT JUMPDEST PUSH1 0x20 DUP4 ADD SWAP5 POP DUP1 SWAP4 POP POP POP POP SWAP3 POP SWAP3 POP SWAP3 JUMP JUMPDEST PUSH1 0x0 DUP1 PUSH1 0x40 DUP4 DUP6 SUB SLT ISZERO PUSH2 0x90D JUMPI DUP2 DUP3 REVERT JUMPDEST PUSH2 0x916 DUP4 PUSH2 0x762 JUMP JUMPDEST SWAP2 POP PUSH1 0x20 DUP4 ADD CALLDATALOAD PUSH8 0xFFFFFFFFFFFFFFFF DUP2 GT ISZERO PUSH2 0x931 JUMPI DUP2 DUP3 REVERT JUMPDEST PUSH2 0x93D DUP6 DUP3 DUP7 ADD PUSH2 0x779 JUMP JUMPDEST SWAP2 POP POP SWAP3 POP SWAP3 SWAP1 POP JUMP JUMPDEST PUSH1 0x0 DUP3 DUP5 DUP4 CALLDATACOPY SWAP2 ADD SWAP1 DUP2 MSTORE SWAP2 SWAP1 POP JUMP JUMPDEST PUSH1 0x0 DUP3 MLOAD DUP2 JUMPDEST DUP2 DUP2 LT ISZERO PUSH2 0x977 JUMPI PUSH1 0x20 DUP2 DUP7 ADD DUP2 ADD MLOAD DUP6 DUP4 ADD MSTORE ADD PUSH2 0x95D JUMP JUMPDEST DUP2 DUP2 GT ISZERO PUSH2 0x985 JUMPI DUP3 DUP3 DUP6 ADD MSTORE JUMPDEST POP SWAP2 SWAP1 SWAP2 ADD SWAP3 SWAP2 POP POP JUMP JUMPDEST PUSH1 0x0 DUP3 DUP3 LT ISZERO PUSH2 0x9AE JUMPI PUSH4 0x4E487B71 PUSH1 0xE0 SHL DUP2 MSTORE PUSH1 0x11 PUSH1 0x4 MSTORE PUSH1 0x24 DUP2 REVERT JUMPDEST POP SUB SWAP1 JUMP JUMPDEST PUSH4 0x4E487B71 PUSH1 0xE0 SHL PUSH1 0x0 MSTORE PUSH1 0x41 PUSH1 0x4 MSTORE PUSH1 0x24 PUSH1 0x0 REVERT INVALID 0xB5 BALANCE 0x27 PUSH9 0x4A568B3173AE13B9F8 0xA6 ADD PUSH15 0x243E63B6E8EE1178D6A717850B5D61 SUB CALLDATASIZE ADDMOD SWAP5 LOG1 EXTCODESIZE LOG1 LOG3 0x21 MOD PUSH8 0xC828492DB98DCA3E KECCAK256 PUSH23 0xCC3735A920A3CA505D382BBCA2646970667358221220C8 SWAP13 SHL SMOD 0xAA 0xD1 DUP10 0xDB 0xE7 0xB1 0xEC 0xD2 PUSH24 0x4FB4CE8E403034B82BBC9B4282C7AFD47572EF64736F6C63 NUMBER STOP ADDMOD MUL STOP CALLER "
        },
        "methodIdentifiers": {
          "admin()": "f851a440",
          "changeAdmin(address)": "8f283970",
          "implementation()": "5c60da1b",
          "initialize(address,address,bytes)": "cf7a1d77",
          "initialize(address,bytes)": "d1f57894",
          "upgradeTo(address)": "3659cfe6",
          "upgradeToAndCall(address,bytes)": "4f1ef286"
        }
      }
    }
  }
}