{
  "_format": "hh-sol-artifact-1",
  "contractName": "BIBToken",
  "sourceName": "contracts/token/BIBToken.sol",
  "abi": [
    {
      "anonymous": false,
      "inputs": [
        {
          "indexed": true,
          "internalType": "address",
          "name": "owner",
          "type": "address"
        },
        {
          "indexed": true,
          "internalType": "address",
          "name": "spender",
          "type": "address"
        },
        {
          "indexed": false,
          "internalType": "uint256",
          "name": "value",
          "type": "uint256"
        }
      ],
      "name": "Approval",
      "type": "event"
    },
    {
      "anonymous": false,
      "inputs": [
        {
          "indexed": true,
          "internalType": "address",
          "name": "account",
          "type": "address"
        },
        {
          "indexed": false,
          "internalType": "bool",
          "name": "isExcluded",
          "type": "bool"
        },
        {
          "indexed": false,
          "internalType": "bool",
          "name": "isFrom",
          "type": "bool"
        }
      ],
      "name": "ExcludeFromFees",
      "type": "event"
    },
    {
      "anonymous": false,
      "inputs": [
        {
          "indexed": true,
          "internalType": "uint256",
          "name": "newValue",
          "type": "uint256"
        },
        {
          "indexed": true,
          "internalType": "uint256",
          "name": "oldValue",
          "type": "uint256"
        }
      ],
      "name": "GasForProcessingUpdated",
      "type": "event"
    },
    {
      "anonymous": false,
      "inputs": [
        {
          "indexed": false,
          "internalType": "uint8",
          "name": "version",
          "type": "uint8"
        }
      ],
      "name": "Initialized",
      "type": "event"
    },
    {
      "anonymous": false,
      "inputs": [
        {
          "indexed": true,
          "internalType": "address",
          "name": "account",
          "type": "address"
        },
        {
          "indexed": false,
          "internalType": "bool",
          "name": "noProcess",
          "type": "bool"
        }
      ],
      "name": "NoProcessList",
      "type": "event"
    },
    {
      "anonymous": false,
      "inputs": [
        {
          "indexed": true,
          "internalType": "address",
          "name": "previousOwner",
          "type": "address"
        },
        {
          "indexed": true,
          "internalType": "address",
          "name": "newOwner",
          "type": "address"
        }
      ],
      "name": "OwnershipTransferred",
      "type": "event"
    },
    {
      "anonymous": false,
      "inputs": [
        {
          "indexed": false,
          "internalType": "address",
          "name": "account",
          "type": "address"
        }
      ],
      "name": "Paused",
      "type": "event"
    },
    {
      "anonymous": false,
      "inputs": [
        {
          "indexed": false,
          "internalType": "uint256",
          "name": "iterations",
          "type": "uint256"
        },
        {
          "indexed": false,
          "internalType": "uint256",
          "name": "claims",
          "type": "uint256"
        },
        {
          "indexed": false,
          "internalType": "uint256",
          "name": "lastProcessedIndex",
          "type": "uint256"
        },
        {
          "indexed": true,
          "internalType": "bool",
          "name": "automatic",
          "type": "bool"
        },
        {
          "indexed": false,
          "internalType": "uint256",
          "name": "gas",
          "type": "uint256"
        },
        {
          "indexed": true,
          "internalType": "address",
          "name": "processor",
          "type": "address"
        }
      ],
      "name": "ProcessedDividendTracker",
      "type": "event"
    },
    {
      "anonymous": false,
      "inputs": [
        {
          "indexed": false,
          "internalType": "uint256",
          "name": "tokensSwapped",
          "type": "uint256"
        },
        {
          "indexed": false,
          "internalType": "uint256",
          "name": "amount",
          "type": "uint256"
        }
      ],
      "name": "SendDividends",
      "type": "event"
    },
    {
      "anonymous": false,
      "inputs": [
        {
          "indexed": true,
          "internalType": "address",
          "name": "pair",
          "type": "address"
        },
        {
          "indexed": true,
          "internalType": "bool",
          "name": "value",
          "type": "bool"
        }
      ],
      "name": "SetAutomatedMarketMakerPair",
      "type": "event"
    },
    {
      "anonymous": false,
      "inputs": [
        {
          "indexed": false,
          "internalType": "uint256",
          "name": "tokensSwapped",
          "type": "uint256"
        },
        {
          "indexed": false,
          "internalType": "uint256",
          "name": "ethReceived",
          "type": "uint256"
        },
        {
          "indexed": false,
          "internalType": "uint256",
          "name": "tokensIntoLiqudity",
          "type": "uint256"
        }
      ],
      "name": "SwapAndLiquify",
      "type": "event"
    },
    {
      "anonymous": false,
      "inputs": [
        {
          "indexed": true,
          "internalType": "uint256",
          "name": "newValue",
          "type": "uint256"
        },
        {
          "indexed": true,
          "internalType": "uint256",
          "name": "oldValue",
          "type": "uint256"
        }
      ],
      "name": "SwapTokensAtAmountUpdated",
      "type": "event"
    },
    {
      "anonymous": false,
      "inputs": [
        {
          "indexed": true,
          "internalType": "address",
          "name": "from",
          "type": "address"
        },
        {
          "indexed": true,
          "internalType": "address",
          "name": "to",
          "type": "address"
        },
        {
          "indexed": false,
          "internalType": "uint256",
          "name": "value",
          "type": "uint256"
        }
      ],
      "name": "Transfer",
      "type": "event"
    },
    {
      "anonymous": false,
      "inputs": [
        {
          "indexed": false,
          "internalType": "address",
          "name": "account",
          "type": "address"
        }
      ],
      "name": "Unpaused",
      "type": "event"
    },
    {
      "anonymous": false,
      "inputs": [
        {
          "indexed": true,
          "internalType": "address",
          "name": "newAddress",
          "type": "address"
        },
        {
          "indexed": true,
          "internalType": "address",
          "name": "oldAddress",
          "type": "address"
        }
      ],
      "name": "UpdateUniswapV2Router",
      "type": "event"
    },
    {
      "inputs": [
        {
          "internalType": "address[]",
          "name": "addrs",
          "type": "address[]"
        }
      ],
      "name": "addExcludeFromDividends",
      "outputs": [],
      "stateMutability": "nonpayable",
      "type": "function"
    },
    {
      "inputs": [
        {
          "internalType": "address",
          "name": "",
          "type": "address"
        }
      ],
      "name": "admin",
      "outputs": [
        {
          "internalType": "bool",
          "name": "",
          "type": "bool"
        }
      ],
      "stateMutability": "view",
      "type": "function"
    },
    {
      "inputs": [],
      "name": "allowTransfer",
      "outputs": [
        {
          "internalType": "bool",
          "name": "",
          "type": "bool"
        }
      ],
      "stateMutability": "view",
      "type": "function"
    },
    {
      "inputs": [
        {
          "internalType": "address",
          "name": "owner",
          "type": "address"
        },
        {
          "internalType": "address",
          "name": "spender",
          "type": "address"
        }
      ],
      "name": "allowance",
      "outputs": [
        {
          "internalType": "uint256",
          "name": "",
          "type": "uint256"
        }
      ],
      "stateMutability": "view",
      "type": "function"
    },
    {
      "inputs": [
        {
          "internalType": "address",
          "name": "spender",
          "type": "address"
        },
        {
          "internalType": "uint256",
          "name": "amount",
          "type": "uint256"
        }
      ],
      "name": "approve",
      "outputs": [
        {
          "internalType": "bool",
          "name": "",
          "type": "bool"
        }
      ],
      "stateMutability": "nonpayable",
      "type": "function"
    },
    {
      "inputs": [
        {
          "internalType": "address",
          "name": "",
          "type": "address"
        }
      ],
      "name": "automatedMarketMakerPairs",
      "outputs": [
        {
          "internalType": "bool",
          "name": "",
          "type": "bool"
        }
      ],
      "stateMutability": "view",
      "type": "function"
    },
    {
      "inputs": [
        {
          "internalType": "address",
          "name": "account",
          "type": "address"
        }
      ],
      "name": "balanceOf",
      "outputs": [
        {
          "internalType": "uint256",
          "name": "",
          "type": "uint256"
        }
      ],
      "stateMutability": "view",
      "type": "function"
    },
    {
      "inputs": [],
      "name": "blackholeFee",
      "outputs": [
        {
          "internalType": "uint256",
          "name": "",
          "type": "uint256"
        }
      ],
      "stateMutability": "view",
      "type": "function"
    },
    {
      "inputs": [],
      "name": "claim",
      "outputs": [],
      "stateMutability": "nonpayable",
      "type": "function"
    },
    {
      "inputs": [],
      "name": "deadAddress",
      "outputs": [
        {
          "internalType": "address",
          "name": "",
          "type": "address"
        }
      ],
      "stateMutability": "view",
      "type": "function"
    },
    {
      "inputs": [],
      "name": "decimalVal",
      "outputs": [
        {
          "internalType": "uint256",
          "name": "",
          "type": "uint256"
        }
      ],
      "stateMutability": "view",
      "type": "function"
    },
    {
      "inputs": [],
      "name": "decimals",
      "outputs": [
        {
          "internalType": "uint8",
          "name": "",
          "type": "uint8"
        }
      ],
      "stateMutability": "view",
      "type": "function"
    },
    {
      "inputs": [
        {
          "internalType": "address",
          "name": "spender",
          "type": "address"
        },
        {
          "internalType": "uint256",
          "name": "subtractedValue",
          "type": "uint256"
        }
      ],
      "name": "decreaseAllowance",
      "outputs": [
        {
          "internalType": "bool",
          "name": "",
          "type": "bool"
        }
      ],
      "stateMutability": "nonpayable",
      "type": "function"
    },
    {
      "inputs": [],
      "name": "dividendTracker",
      "outputs": [
        {
          "internalType": "contract ITokenDividendTracker",
          "name": "",
          "type": "address"
        }
      ],
      "stateMutability": "view",
      "type": "function"
    },
    {
      "inputs": [],
      "name": "freezeToken",
      "outputs": [
        {
          "internalType": "contract FreezeTokenInterface",
          "name": "",
          "type": "address"
        }
      ],
      "stateMutability": "view",
      "type": "function"
    },
    {
      "inputs": [],
      "name": "gasForProcessing",
      "outputs": [
        {
          "internalType": "uint256",
          "name": "",
          "type": "uint256"
        }
      ],
      "stateMutability": "view",
      "type": "function"
    },
    {
      "inputs": [
        {
          "internalType": "address",
          "name": "account",
          "type": "address"
        }
      ],
      "name": "getAccountDividendsInfo",
      "outputs": [
        {
          "internalType": "address",
          "name": "",
          "type": "address"
        },
        {
          "internalType": "int256",
          "name": "",
          "type": "int256"
        },
        {
          "internalType": "int256",
          "name": "",
          "type": "int256"
        },
        {
          "internalType": "uint256",
          "name": "",
          "type": "uint256"
        },
        {
          "internalType": "uint256",
          "name": "",
          "type": "uint256"
        },
        {
          "internalType": "uint256",
          "name": "",
          "type": "uint256"
        },
        {
          "internalType": "uint256",
          "name": "",
          "type": "uint256"
        },
        {
          "internalType": "uint256",
          "name": "",
          "type": "uint256"
        }
      ],
      "stateMutability": "view",
      "type": "function"
    },
    {
      "inputs": [
        {
          "internalType": "uint256",
          "name": "index",
          "type": "uint256"
        }
      ],
      "name": "getAccountDividendsInfoAtIndex",
      "outputs": [
        {
          "internalType": "address",
          "name": "",
          "type": "address"
        },
        {
          "internalType": "int256",
          "name": "",
          "type": "int256"
        },
        {
          "internalType": "int256",
          "name": "",
          "type": "int256"
        },
        {
          "internalType": "uint256",
          "name": "",
          "type": "uint256"
        },
        {
          "internalType": "uint256",
          "name": "",
          "type": "uint256"
        },
        {
          "internalType": "uint256",
          "name": "",
          "type": "uint256"
        },
        {
          "internalType": "uint256",
          "name": "",
          "type": "uint256"
        },
        {
          "internalType": "uint256",
          "name": "",
          "type": "uint256"
        }
      ],
      "stateMutability": "view",
      "type": "function"
    },
    {
      "inputs": [],
      "name": "getLastProcessedIndex",
      "outputs": [
        {
          "internalType": "uint256",
          "name": "",
          "type": "uint256"
        }
      ],
      "stateMutability": "view",
      "type": "function"
    },
    {
      "inputs": [],
      "name": "getNumberOfDividendTokenHolders",
      "outputs": [
        {
          "internalType": "uint256",
          "name": "",
          "type": "uint256"
        }
      ],
      "stateMutability": "view",
      "type": "function"
    },
    {
      "inputs": [
        {
          "internalType": "address",
          "name": "spender",
          "type": "address"
        },
        {
          "internalType": "uint256",
          "name": "addedValue",
          "type": "uint256"
        }
      ],
      "name": "increaseAllowance",
      "outputs": [
        {
          "internalType": "bool",
          "name": "",
          "type": "bool"
        }
      ],
      "stateMutability": "nonpayable",
      "type": "function"
    },
    {
      "inputs": [
        {
          "internalType": "address",
          "name": "_w1",
          "type": "address"
        },
        {
          "internalType": "address",
          "name": "_w2",
          "type": "address"
        },
        {
          "internalType": "address",
          "name": "_w3",
          "type": "address"
        },
        {
          "internalType": "address",
          "name": "_w4",
          "type": "address"
        },
        {
          "internalType": "address",
          "name": "_w0",
          "type": "address"
        },
        {
          "internalType": "address",
          "name": "_w5",
          "type": "address"
        },
        {
          "internalType": "address",
          "name": "_w6",
          "type": "address"
        },
        {
          "internalType": "address",
          "name": "_w7",
          "type": "address"
        }
      ],
      "name": "initAddress",
      "outputs": [],
      "stateMutability": "nonpayable",
      "type": "function"
    },
    {
      "inputs": [
        {
          "internalType": "address",
          "name": "_dividendTracker",
          "type": "address"
        },
        {
          "internalType": "address",
          "name": "_router",
          "type": "address"
        },
        {
          "internalType": "address",
          "name": "_rewardToken",
          "type": "address"
        }
      ],
      "name": "initialize",
      "outputs": [],
      "stateMutability": "nonpayable",
      "type": "function"
    },
    {
      "inputs": [
        {
          "internalType": "address",
          "name": "addr",
          "type": "address"
        }
      ],
      "name": "isContract",
      "outputs": [
        {
          "internalType": "bool",
          "name": "",
          "type": "bool"
        }
      ],
      "stateMutability": "view",
      "type": "function"
    },
    {
      "inputs": [
        {
          "internalType": "address",
          "name": "",
          "type": "address"
        }
      ],
      "name": "isFromWhiteList",
      "outputs": [
        {
          "internalType": "bool",
          "name": "",
          "type": "bool"
        }
      ],
      "stateMutability": "view",
      "type": "function"
    },
    {
      "inputs": [
        {
          "internalType": "address",
          "name": "",
          "type": "address"
        }
      ],
      "name": "isToWhiteList",
      "outputs": [
        {
          "internalType": "bool",
          "name": "",
          "type": "bool"
        }
      ],
      "stateMutability": "view",
      "type": "function"
    },
    {
      "inputs": [],
      "name": "liquidityFee",
      "outputs": [
        {
          "internalType": "uint256",
          "name": "",
          "type": "uint256"
        }
      ],
      "stateMutability": "view",
      "type": "function"
    },
    {
      "inputs": [],
      "name": "name",
      "outputs": [
        {
          "internalType": "string",
          "name": "",
          "type": "string"
        }
      ],
      "stateMutability": "view",
      "type": "function"
    },
    {
      "inputs": [
        {
          "internalType": "address",
          "name": "",
          "type": "address"
        }
      ],
      "name": "noProcessList",
      "outputs": [
        {
          "internalType": "bool",
          "name": "",
          "type": "bool"
        }
      ],
      "stateMutability": "view",
      "type": "function"
    },
    {
      "inputs": [],
      "name": "owner",
      "outputs": [
        {
          "internalType": "address",
          "name": "",
          "type": "address"
        }
      ],
      "stateMutability": "view",
      "type": "function"
    },
    {
      "inputs": [],
      "name": "pause",
      "outputs": [],
      "stateMutability": "nonpayable",
      "type": "function"
    },
    {
      "inputs": [],
      "name": "paused",
      "outputs": [
        {
          "internalType": "bool",
          "name": "",
          "type": "bool"
        }
      ],
      "stateMutability": "view",
      "type": "function"
    },
    {
      "inputs": [
        {
          "internalType": "uint256",
          "name": "gas",
          "type": "uint256"
        }
      ],
      "name": "processDividendTracker",
      "outputs": [],
      "stateMutability": "nonpayable",
      "type": "function"
    },
    {
      "inputs": [],
      "name": "release",
      "outputs": [],
      "stateMutability": "nonpayable",
      "type": "function"
    },
    {
      "inputs": [],
      "name": "renounceOwnership",
      "outputs": [],
      "stateMutability": "nonpayable",
      "type": "function"
    },
    {
      "inputs": [],
      "name": "rewardFee",
      "outputs": [
        {
          "internalType": "uint256",
          "name": "",
          "type": "uint256"
        }
      ],
      "stateMutability": "view",
      "type": "function"
    },
    {
      "inputs": [],
      "name": "rewardToken",
      "outputs": [
        {
          "internalType": "address",
          "name": "",
          "type": "address"
        }
      ],
      "stateMutability": "view",
      "type": "function"
    },
    {
      "inputs": [],
      "name": "router",
      "outputs": [
        {
          "internalType": "address",
          "name": "",
          "type": "address"
        }
      ],
      "stateMutability": "view",
      "type": "function"
    },
    {
      "inputs": [
        {
          "internalType": "bool",
          "name": "value",
          "type": "bool"
        }
      ],
      "name": "setAllowTransfer",
      "outputs": [],
      "stateMutability": "nonpayable",
      "type": "function"
    },
    {
      "inputs": [
        {
          "internalType": "address",
          "name": "account",
          "type": "address"
        }
      ],
      "name": "setAntiBotStopAddress",
      "outputs": [],
      "stateMutability": "nonpayable",
      "type": "function"
    },
    {
      "inputs": [
        {
          "internalType": "address",
          "name": "pair",
          "type": "address"
        },
        {
          "internalType": "bool",
          "name": "value",
          "type": "bool"
        }
      ],
      "name": "setAutomatedMarketMakerPair",
      "outputs": [],
      "stateMutability": "nonpayable",
      "type": "function"
    },
    {
      "inputs": [
        {
          "internalType": "address",
          "name": "account",
          "type": "address"
        },
        {
          "internalType": "bool",
          "name": "excluded",
          "type": "bool"
        },
        {
          "internalType": "bool",
          "name": "isFrom",
          "type": "bool"
        }
      ],
      "name": "setFeeWhiteList",
      "outputs": [],
      "stateMutability": "nonpayable",
      "type": "function"
    },
    {
      "inputs": [
        {
          "internalType": "address",
          "name": "_freezeToken",
          "type": "address"
        }
      ],
      "name": "setFreezeTokenAddress",
      "outputs": [],
      "stateMutability": "nonpayable",
      "type": "function"
    },
    {
      "inputs": [
        {
          "internalType": "address[]",
          "name": "accounts",
          "type": "address[]"
        },
        {
          "internalType": "bool",
          "name": "noProcess",
          "type": "bool"
        }
      ],
      "name": "setMultipleNoProcessList",
      "outputs": [],
      "stateMutability": "nonpayable",
      "type": "function"
    },
    {
      "inputs": [
        {
          "internalType": "address[]",
          "name": "accounts",
          "type": "address[]"
        },
        {
          "internalType": "bool",
          "name": "excluded",
          "type": "bool"
        },
        {
          "internalType": "bool",
          "name": "isFrom",
          "type": "bool"
        }
      ],
      "name": "setMultipleWhiteList",
      "outputs": [],
      "stateMutability": "nonpayable",
      "type": "function"
    },
    {
      "inputs": [
        {
          "internalType": "address",
          "name": "account",
          "type": "address"
        },
        {
          "internalType": "bool",
          "name": "noProcess",
          "type": "bool"
        }
      ],
      "name": "setNoProcessList",
      "outputs": [],
      "stateMutability": "nonpayable",
      "type": "function"
    },
    {
      "inputs": [
        {
          "internalType": "uint16",
          "name": "_rewardfee",
          "type": "uint16"
        },
        {
          "internalType": "uint16",
          "name": "_blackhole",
          "type": "uint16"
        },
        {
          "internalType": "uint16",
          "name": "_liquidity",
          "type": "uint16"
        }
      ],
      "name": "setSellFee",
      "outputs": [],
      "stateMutability": "nonpayable",
      "type": "function"
    },
    {
      "inputs": [
        {
          "internalType": "bool",
          "name": "value",
          "type": "bool"
        }
      ],
      "name": "setSwapEnabled",
      "outputs": [],
      "stateMutability": "nonpayable",
      "type": "function"
    },
    {
      "inputs": [
        {
          "internalType": "address",
          "name": "w",
          "type": "address"
        }
      ],
      "name": "setW0",
      "outputs": [],
      "stateMutability": "nonpayable",
      "type": "function"
    },
    {
      "inputs": [
        {
          "internalType": "address",
          "name": "w",
          "type": "address"
        }
      ],
      "name": "setW1Address",
      "outputs": [],
      "stateMutability": "nonpayable",
      "type": "function"
    },
    {
      "inputs": [
        {
          "internalType": "address",
          "name": "w",
          "type": "address"
        }
      ],
      "name": "setW2Address",
      "outputs": [],
      "stateMutability": "nonpayable",
      "type": "function"
    },
    {
      "inputs": [
        {
          "internalType": "address",
          "name": "w",
          "type": "address"
        }
      ],
      "name": "setW3Address",
      "outputs": [],
      "stateMutability": "nonpayable",
      "type": "function"
    },
    {
      "inputs": [
        {
          "internalType": "address",
          "name": "w",
          "type": "address"
        }
      ],
      "name": "setW4Address",
      "outputs": [],
      "stateMutability": "nonpayable",
      "type": "function"
    },
    {
      "inputs": [
        {
          "internalType": "address",
          "name": "w",
          "type": "address"
        }
      ],
      "name": "setW5Address",
      "outputs": [],
      "stateMutability": "nonpayable",
      "type": "function"
    },
    {
      "inputs": [
        {
          "internalType": "address",
          "name": "w",
          "type": "address"
        }
      ],
      "name": "setW6Address",
      "outputs": [],
      "stateMutability": "nonpayable",
      "type": "function"
    },
    {
      "inputs": [
        {
          "internalType": "address",
          "name": "w",
          "type": "address"
        }
      ],
      "name": "setW7Address",
      "outputs": [],
      "stateMutability": "nonpayable",
      "type": "function"
    },
    {
      "inputs": [],
      "name": "swapEnabled",
      "outputs": [
        {
          "internalType": "bool",
          "name": "",
          "type": "bool"
        }
      ],
      "stateMutability": "view",
      "type": "function"
    },
    {
      "inputs": [],
      "name": "swapTokensAtAmount",
      "outputs": [
        {
          "internalType": "uint256",
          "name": "",
          "type": "uint256"
        }
      ],
      "stateMutability": "view",
      "type": "function"
    },
    {
      "inputs": [],
      "name": "symbol",
      "outputs": [
        {
          "internalType": "string",
          "name": "",
          "type": "string"
        }
      ],
      "stateMutability": "view",
      "type": "function"
    },
    {
      "inputs": [],
      "name": "tokenOwner",
      "outputs": [
        {
          "internalType": "address",
          "name": "",
          "type": "address"
        }
      ],
      "stateMutability": "view",
      "type": "function"
    },
    {
      "inputs": [],
      "name": "totalSupply",
      "outputs": [
        {
          "internalType": "uint256",
          "name": "",
          "type": "uint256"
        }
      ],
      "stateMutability": "view",
      "type": "function"
    },
    {
      "inputs": [
        {
          "internalType": "address",
          "name": "to",
          "type": "address"
        },
        {
          "internalType": "uint256",
          "name": "amount",
          "type": "uint256"
        }
      ],
      "name": "transfer",
      "outputs": [
        {
          "internalType": "bool",
          "name": "",
          "type": "bool"
        }
      ],
      "stateMutability": "nonpayable",
      "type": "function"
    },
    {
      "inputs": [
        {
          "internalType": "address",
          "name": "from",
          "type": "address"
        },
        {
          "internalType": "address",
          "name": "to",
          "type": "address"
        },
        {
          "internalType": "uint256",
          "name": "amount",
          "type": "uint256"
        }
      ],
      "name": "transferFrom",
      "outputs": [
        {
          "internalType": "bool",
          "name": "",
          "type": "bool"
        }
      ],
      "stateMutability": "nonpayable",
      "type": "function"
    },
    {
      "inputs": [
        {
          "internalType": "address",
          "name": "newOwner",
          "type": "address"
        }
      ],
      "name": "transferOwnership",
      "outputs": [],
      "stateMutability": "nonpayable",
      "type": "function"
    },
    {
      "inputs": [],
      "name": "uniswapV2Pair",
      "outputs": [
        {
          "internalType": "address",
          "name": "",
          "type": "address"
        }
      ],
      "stateMutability": "view",
      "type": "function"
    },
    {
      "inputs": [],
      "name": "uniswapV2Router",
      "outputs": [
        {
          "internalType": "contract IUniswapV2Router02",
          "name": "",
          "type": "address"
        }
      ],
      "stateMutability": "view",
      "type": "function"
    },
    {
      "inputs": [],
      "name": "unpause",
      "outputs": [],
      "stateMutability": "nonpayable",
      "type": "function"
    },
    {
      "inputs": [
        {
          "internalType": "uint256",
          "name": "claimWait",
          "type": "uint256"
        }
      ],
      "name": "updateClaimWait",
      "outputs": [],
      "stateMutability": "nonpayable",
      "type": "function"
    },
    {
      "inputs": [
        {
          "internalType": "uint256",
          "name": "newValue",
          "type": "uint256"
        }
      ],
      "name": "updateGasForProcessing",
      "outputs": [],
      "stateMutability": "nonpayable",
      "type": "function"
    },
    {
      "inputs": [
        {
          "internalType": "uint256",
          "name": "newValue",
          "type": "uint256"
        }
      ],
      "name": "updateSwapTokensAtAmount",
      "outputs": [],
      "stateMutability": "nonpayable",
      "type": "function"
    },
    {
      "inputs": [
        {
          "internalType": "address",
          "name": "newAddress",
          "type": "address"
        }
      ],
      "name": "updateUniswapV2Router",
      "outputs": [],
      "stateMutability": "nonpayable",
      "type": "function"
    },
    {
      "inputs": [],
      "name": "w0",
      "outputs": [
        {
          "internalType": "address",
          "name": "",
          "type": "address"
        }
      ],
      "stateMutability": "view",
      "type": "function"
    },
    {
      "inputs": [],
      "name": "w1",
      "outputs": [
        {
          "internalType": "address",
          "name": "",
          "type": "address"
        }
      ],
      "stateMutability": "view",
      "type": "function"
    },
    {
      "inputs": [],
      "name": "w2",
      "outputs": [
        {
          "internalType": "address",
          "name": "",
          "type": "address"
        }
      ],
      "stateMutability": "view",
      "type": "function"
    },
    {
      "inputs": [],
      "name": "w3",
      "outputs": [
        {
          "internalType": "address",
          "name": "",
          "type": "address"
        }
      ],
      "stateMutability": "view",
      "type": "function"
    },
    {
      "inputs": [],
      "name": "w4",
      "outputs": [
        {
          "internalType": "address",
          "name": "",
          "type": "address"
        }
      ],
      "stateMutability": "view",
      "type": "function"
    },
    {
      "inputs": [],
      "name": "w5",
      "outputs": [
        {
          "internalType": "address",
          "name": "",
          "type": "address"
        }
      ],
      "stateMutability": "view",
      "type": "function"
    },
    {
      "inputs": [],
      "name": "w6",
      "outputs": [
        {
          "internalType": "address",
          "name": "",
          "type": "address"
        }
      ],
      "stateMutability": "view",
      "type": "function"
    },
    {
      "inputs": [],
      "name": "w7",
      "outputs": [
        {
          "internalType": "address",
          "name": "",
          "type": "address"
        }
      ],
      "stateMutability": "view",
      "type": "function"
    },
    {
      "stateMutability": "payable",
      "type": "receive"
    }
  ],
  "bytecode": "0x6080604052600660cf55600160d055600360d1556200002b670de0b6b3a7640000633b9aca0062000049565b60dc55620493e060de553480156200004257600080fd5b5062000075565b60008160001904831182151516156200007057634e487b7160e01b81526011600452602481fd5b500290565b614e9b80620000856000396000f3fe60806040526004361061046c5760003560e01c80636e6a7e6f1161024a578063a9059cbb11610139578063e2f45605116100b6578063f27fd2541161007a578063f27fd25414610dea578063f2fde38b14610e0a578063f7c618c114610e2a578063f887ea4014610e4a578063fb21778714610e6a57610473565b8063e2f4560514610d4f578063e5699e4d14610d65578063e576d95614610d85578063e7841ec014610db5578063e98030c714610dca57610473565b8063d6498427116100fd578063d649842714610cb9578063dbb74d5214610cd9578063dbf25c2914610cf9578063dd62ed3e14610d0f578063e01af92c14610d2f57610473565b8063a9059cbb14610bc4578063ad56c13c14610be4578063b62496f514610c49578063c0c53b8b14610c79578063d257b34f14610c9957610473565b80638da5cb5b116101c75780639c1b8af51161018b5780639c1b8af514610b2e5780639c4575d614610b44578063a044c98714610b64578063a3e6761014610b84578063a457c2d714610ba457610473565b80638da5cb5b14610aab57806395d89b4114610ac957806398118cb414610ade5780639a7a23d614610af45780639b08a22f14610b1457610473565b80638456cb591161020e5780638456cb5914610a2b57806386d1a69f14610a40578063871c128d14610a555780638b42426714610a755780638ccbd6da14610a8b57610473565b80636e6a7e6f14610980578063700bb191146109a057806370a08231146109c0578063715018a6146109f65780637e44755b14610a0b57610473565b80632e56179d116103665780634df62499116102e357806362aaeaac116102a757806362aaeaac146108e157806363a846f81461090157806364b0f6531461093157806365b8dbc0146109465780636ddd17131461096657610473565b80634df62499146108545780634e71d92d146108745780634ea9947f146108895780635c975abb146108a9578063609be8fc146108c157610473565b80633e46d1501161032a5780633e46d150146107af5780633f4ba83a146107cf5780634553fc8c146107e457806349bd5a5e146108045780634bfffc201461082457610473565b80632e56179d14610713578063313ce567146107335780633602deb21461074f578063395093511461076f5780633c97aaf21461078f57610473565b806316279055116103f457806323b872dd116103b857806323b872dd14610678578063258cae021461069857806327c8f835146106b85780632c1f5216146106ce5780632e222fa2146106f357610473565b806316279055146105e35780631694505e1461060357806318160ddd146106235780631cf6f404146106385780631ea5f5891461065857610473565b80630ae14ccb1161043b5780630ae14ccb146105275780630b81e216146105495780630c012f72146105695780631155692d1461059957806313503a4e146105b957610473565b806302290f5d1461047857806303cf8a20146104b557806306fdde03146104d5578063095ea7b3146104f757610473565b3661047357005b600080fd5b34801561048457600080fd5b5060da54610498906001600160a01b031681565b6040516001600160a01b0390911681526020015b60405180910390f35b3480156104c157600080fd5b5060d654610498906001600160a01b031681565b3480156104e157600080fd5b506104ea610e8a565b6040516104ac9190614b34565b34801561050357600080fd5b506105176105123660046148bc565b610f1c565b60405190151581526020016104ac565b34801561053357600080fd5b50610547610542366004614645565b610f36565b005b34801561055557600080fd5b50610547610564366004614a5d565b610f8f565b34801561057557600080fd5b50610517610584366004614645565b60e06020526000908152604090205460ff1681565b3480156105a557600080fd5b506105476105b4366004614645565b610faa565b3480156105c557600080fd5b506105d5670de0b6b3a764000081565b6040519081526020016104ac565b3480156105ef57600080fd5b506105176105fe366004614645565b610ffa565b34801561060f57600080fd5b5060ca54610498906001600160a01b031681565b34801561062f57600080fd5b506035546105d5565b34801561064457600080fd5b50610547610653366004614645565b611004565b34801561066457600080fd5b5060d954610498906001600160a01b031681565b34801561068457600080fd5b506105176106933660046147a7565b611054565b3480156106a457600080fd5b506105476106b3366004614931565b611078565b3480156106c457600080fd5b5061049861dead81565b3480156106da57600080fd5b5060d2546104989061010090046001600160a01b031681565b3480156106ff57600080fd5b5061054761070e366004614a95565b6110e3565b34801561071f57600080fd5b5061054761072e366004614645565b611166565b34801561073f57600080fd5b50604051601281526020016104ac565b34801561075b57600080fd5b5060d854610498906001600160a01b031681565b34801561077b57600080fd5b5061051761078a3660046148bc565b6111b6565b34801561079b57600080fd5b506105476107aa366004614814565b6111d8565b3480156107bb57600080fd5b506105476107ca366004614645565b6112fe565b3480156107db57600080fd5b5061054761134e565b3480156107f057600080fd5b506105476107ff3660046146ff565b611360565b34801561081057600080fd5b5060cc54610498906001600160a01b031681565b34801561083057600080fd5b5061051761083f366004614645565b60e16020526000908152604090205460ff1681565b34801561086057600080fd5b5061054761086f366004614645565b6119bf565b34801561088057600080fd5b50610547611a0f565b34801561089557600080fd5b506105476108a4366004614645565b611a9a565b3480156108b557600080fd5b5060655460ff16610517565b3480156108cd57600080fd5b506105476108dc366004614997565b611aea565b3480156108ed57600080fd5b5060d354610498906001600160a01b031681565b34801561090d57600080fd5b5061051761091c366004614645565b60c96020526000908152604090205460ff1681565b34801561093d57600080fd5b506105d5611bbe565b34801561095257600080fd5b50610547610961366004614645565b611c4b565b34801561097257600080fd5b5060dd546105179060ff1681565b34801561098c57600080fd5b5061054761099b366004614645565b611f21565b3480156109ac57600080fd5b506105476109bb366004614ad7565b611fad565b3480156109cc57600080fd5b506105d56109db366004614645565b6001600160a01b031660009081526033602052604090205490565b348015610a0257600080fd5b5061054761209b565b348015610a1757600080fd5b5060d554610498906001600160a01b031681565b348015610a3757600080fd5b506105476120ad565b348015610a4c57600080fd5b506105476120bd565b348015610a6157600080fd5b50610547610a70366004614ad7565b612260565b348015610a8157600080fd5b506105d560cf5481565b348015610a9757600080fd5b5060cb54610498906001600160a01b031681565b348015610ab757600080fd5b506097546001600160a01b0316610498565b348015610ad557600080fd5b506104ea612309565b348015610aea57600080fd5b506105d560d15481565b348015610b0057600080fd5b50610547610b0f3660046147e7565b612318565b348015610b2057600080fd5b5060df546105179060ff1681565b348015610b3a57600080fd5b506105d560de5481565b348015610b5057600080fd5b5060db54610498906001600160a01b031681565b348015610b7057600080fd5b5060d754610498906001600160a01b031681565b348015610b9057600080fd5b5060d454610498906001600160a01b031681565b348015610bb057600080fd5b50610517610bbf3660046148bc565b6123c3565b348015610bd057600080fd5b50610517610bdf3660046148bc565b61243e565b348015610bf057600080fd5b50610c04610bff366004614645565b61244c565b604080516001600160a01b0390991689526020890197909752958701949094526060860192909252608085015260a084015260c083015260e0820152610100016104ac565b348015610c5557600080fd5b50610517610c64366004614645565b60e46020526000908152604090205460ff1681565b348015610c8557600080fd5b50610547610c943660046146b5565b6124fd565b348015610ca557600080fd5b50610547610cb4366004614ad7565b612cb4565b348015610cc557600080fd5b50610547610cd4366004614645565b612d5f565b348015610ce557600080fd5b50610547610cf43660046148e7565b612daf565b348015610d0557600080fd5b506105d560d05481565b348015610d1b57600080fd5b506105d5610d2a36600461467d565b612e12565b348015610d3b57600080fd5b50610547610d4a366004614a5d565b612e3d565b348015610d5b57600080fd5b506105d560dc5481565b348015610d7157600080fd5b50610547610d803660046147e7565b612e58565b348015610d9157600080fd5b50610517610da0366004614645565b60e26020526000908152604090205460ff1681565b348015610dc157600080fd5b506105d5612f49565b348015610dd657600080fd5b50610547610de5366004614ad7565b612f99565b348015610df657600080fd5b50610c04610e05366004614ad7565b612fff565b348015610e1657600080fd5b50610547610e25366004614645565b61304e565b348015610e3657600080fd5b5060cd54610498906001600160a01b031681565b348015610e5657600080fd5b5060ce54610498906001600160a01b031681565b348015610e7657600080fd5b50610547610e85366004614645565b6130c4565b606060368054610e9990614dc0565b80601f0160208091040260200160405190810160405280929190818152602001828054610ec590614dc0565b8015610f125780601f10610ee757610100808354040283529160200191610f12565b820191906000526020600020905b815481529060010190602001808311610ef557829003601f168201915b5050505050905090565b600033610f2a818585613101565b60019150505b92915050565b610f3e613225565b6001600160a01b038116610f6d5760405162461bcd60e51b8152600401610f6490614cab565b60405180910390fd5b60d680546001600160a01b0319166001600160a01b0392909216919091179055565b610f97613225565b60df805460ff1916911515919091179055565b610fb2613225565b6001600160a01b038116610fd85760405162461bcd60e51b8152600401610f6490614cab565b60d380546001600160a01b0319166001600160a01b0392909216919091179055565b803b15155b919050565b61100c613225565b6001600160a01b0381166110325760405162461bcd60e51b8152600401610f6490614cab565b60d980546001600160a01b0319166001600160a01b0392909216919091179055565b60003361106285828561327f565b61106d8585856132f3565b506001949350505050565b611080613225565b60005b838110156110dc576110ca8585838181106110ae57634e487b7160e01b600052603260045260246000fd5b90506020020160208101906110c39190614645565b84846111d8565b806110d481614dfb565b915050611083565b5050505050565b6110eb613225565b61ffff80841660cf81905583821660d081905591831660d1819055600a9290916111159190614d52565b61111f9190614d52565b11156111615760405162461bcd60e51b8152602060048201526011602482015270494e56414c49445f4645455f524154494f60781b6044820152606401610f64565b505050565b61116e613225565b6001600160a01b0381166111945760405162461bcd60e51b8152600401610f6490614cab565b60d780546001600160a01b0319166001600160a01b0392909216919091179055565b600033610f2a8185856111c98383612e12565b6111d39190614d52565b613101565b6111e0613225565b801561124e576001600160a01b038316600090815260e0602052604090205460ff16151582151514156112255760405162461bcd60e51b8152600401610f6490614bca565b6001600160a01b038316600090815260e060205260409020805460ff19168315151790556112b2565b6001600160a01b038316600090815260e1602052604090205460ff161515821515141561128d5760405162461bcd60e51b8152600401610f6490614bca565b6001600160a01b038316600090815260e160205260409020805460ff19168315151790555b60408051831515815282151560208201526001600160a01b038516917f9dba1fcf514d206e831b0cd6e2507585c9306918bfe1a43686d532dee3d459ff910160405180910390a2505050565b611306613225565b6001600160a01b03811661132c5760405162461bcd60e51b8152600401610f6490614cab565b60d580546001600160a01b0319166001600160a01b0392909216919091179055565b611356613225565b61135e6137c9565b565b611368613225565b6001600160a01b0388166113be5760405162461bcd60e51b815260206004820152601b60248201527f5f7731206973206e6f7420746865207a65726f206164647265737300000000006044820152606401610f64565b6001600160a01b0387166114145760405162461bcd60e51b815260206004820152601b60248201527f5f7732206973206e6f7420746865207a65726f206164647265737300000000006044820152606401610f64565b6001600160a01b03861661146a5760405162461bcd60e51b815260206004820152601b60248201527f5f7732206973206e6f7420746865207a65726f206164647265737300000000006044820152606401610f64565b6001600160a01b0385166114c05760405162461bcd60e51b815260206004820152601b60248201527f5f7734206973206e6f7420746865207a65726f206164647265737300000000006044820152606401610f64565b6001600160a01b0384166115165760405162461bcd60e51b815260206004820152601b60248201527f5f7730206973206e6f7420746865207a65726f206164647265737300000000006044820152606401610f64565b6001600160a01b03831661156c5760405162461bcd60e51b815260206004820152601b60248201527f5f7735206973206e6f7420746865207a65726f206164647265737300000000006044820152606401610f64565b6001600160a01b0382166115c25760405162461bcd60e51b815260206004820152601b60248201527f5f7736206973206e6f7420746865207a65726f206164647265737300000000006044820152606401610f64565b6001600160a01b0381166116185760405162461bcd60e51b815260206004820152601b60248201527f5f7737206973206e6f7420746865207a65726f206164647265737300000000006044820152606401610f64565b60d580546001600160a01b03199081166001600160a01b038b8116919091179283905560d6805483168b831617905560d7805483168a831617905560d88054831689831617905560d38054831688831617905560d98054831687831617905560da8054831686831617905560db80549092168482161790915560d25460405163031e79db60e41b81529282166004840152610100900416906331e79db090602401600060405180830381600087803b1580156116d357600080fd5b505af11580156116e7573d6000803e3d6000fd5b505060d25460d65460405163031e79db60e41b81526001600160a01b0391821660048201526101009092041692506331e79db09150602401600060405180830381600087803b15801561173957600080fd5b505af115801561174d573d6000803e3d6000fd5b505060d25460d75460405163031e79db60e41b81526001600160a01b0391821660048201526101009092041692506331e79db09150602401600060405180830381600087803b15801561179f57600080fd5b505af11580156117b3573d6000803e3d6000fd5b505060d25460d85460405163031e79db60e41b81526001600160a01b0391821660048201526101009092041692506331e79db09150602401600060405180830381600087803b15801561180557600080fd5b505af1158015611819573d6000803e3d6000fd5b505060d25460d35460405163031e79db60e41b81526001600160a01b0391821660048201526101009092041692506331e79db09150602401600060405180830381600087803b15801561186b57600080fd5b505af115801561187f573d6000803e3d6000fd5b505060d25460d95460405163031e79db60e41b81526001600160a01b0391821660048201526101009092041692506331e79db09150602401600060405180830381600087803b1580156118d157600080fd5b505af11580156118e5573d6000803e3d6000fd5b505060d25460da5460405163031e79db60e41b81526001600160a01b0391821660048201526101009092041692506331e79db09150602401600060405180830381600087803b15801561193757600080fd5b505af115801561194b573d6000803e3d6000fd5b505060d25460db5460405163031e79db60e41b81526001600160a01b0391821660048201526101009092041692506331e79db09150602401600060405180830381600087803b15801561199d57600080fd5b505af11580156119b1573d6000803e3d6000fd5b505050505050505050505050565b6119c7613225565b6001600160a01b0381166119ed5760405162461bcd60e51b8152600401610f6490614cab565b60db80546001600160a01b0319166001600160a01b0392909216919091179055565b60d25460405163bc4c4b3760e01b8152336004820152600060248201526101009091046001600160a01b03169063bc4c4b3790604401602060405180830381600087803b158015611a5f57600080fd5b505af1158015611a73573d6000803e3d6000fd5b505050506040513d601f19601f82011682018060405250810190611a979190614a79565b50565b611aa2613225565b6001600160a01b038116611ac85760405162461bcd60e51b8152600401610f6490614cab565b60da80546001600160a01b0319166001600160a01b0392909216919091179055565b611af2613225565b60005b8151811015611bba5760d260019054906101000a90046001600160a01b03166001600160a01b03166331e79db0838381518110611b4257634e487b7160e01b600052603260045260246000fd5b60200260200101516040518263ffffffff1660e01b8152600401611b7591906001600160a01b0391909116815260200190565b600060405180830381600087803b158015611b8f57600080fd5b505af1158015611ba3573d6000803e3d6000fd5b505050508080611bb290614dfb565b915050611af5565b5050565b600060d260019054906101000a90046001600160a01b03166001600160a01b03166309bbedde6040518163ffffffff1660e01b815260040160206040518083038186803b158015611c0e57600080fd5b505afa158015611c22573d6000803e3d6000fd5b505050506040513d601f19601f82011682018060405250810190611c469190614aef565b905090565b611c53613225565b611c5c81610ffa565b15611ca95760405162461bcd60e51b815260206004820152601e60248201527f6e65774164647265737320697320636f6e7472616374206164647265737300006044820152606401610f64565b60ca546001600160a01b0382811691161415611d1a5760405162461bcd60e51b815260206004820152602a60248201527f546f6b656e3a2054686520726f7574657220616c7265616479206861732074686044820152696174206164647265737360b01b6064820152608401610f64565b60ca546040516001600160a01b03918216918316907f8fc842bbd331dfa973645f4ed48b11683d501ebf1352708d77a5da2ab49a576e90600090a360ca80546001600160a01b0319166001600160a01b0383811691909117918290556040805163c45a015560e01b81529051929091169163c45a015591600480820192602092909190829003018186803b158015611db157600080fd5b505afa158015611dc5573d6000803e3d6000fd5b505050506040513d601f19601f82011682018060405250810190611de99190614661565b6001600160a01b031663c9c653963060ca60009054906101000a90046001600160a01b03166001600160a01b031663ad5c46486040518163ffffffff1660e01b815260040160206040518083038186803b158015611e4657600080fd5b505afa158015611e5a573d6000803e3d6000fd5b505050506040513d601f19601f82011682018060405250810190611e7e9190614661565b6040516001600160e01b031960e085901b1681526001600160a01b03928316600482015291166024820152604401602060405180830381600087803b158015611ec657600080fd5b505af1158015611eda573d6000803e3d6000fd5b505050506040513d601f19601f82011682018060405250810190611efe9190614661565b60cc80546001600160a01b0319166001600160a01b039290921691909117905550565b611f29613225565b6001600160a01b038116611f8b5760405162461bcd60e51b8152602060048201526024808201527f5f667265657a65546f6b656e206973206e6f7420746865207a65726f206164646044820152637265737360e01b6064820152608401610f64565b60cb80546001600160a01b0319166001600160a01b0392909216919091179055565b611fb5613225565b60d2546040516001624d3b8760e01b03198152600481018390526000918291829161010090046001600160a01b03169063ffb2c47990602401606060405180830381600087803b15801561200857600080fd5b505af115801561201c573d6000803e3d6000fd5b505050506040513d601f19601f820116820180604052508101906120409190614b07565b604080518481526020810184905290810182905260608101889052929550909350915032906000907fc864333d6121033635ab41b29ae52f10a22cf4438c3e4f1c4c68518feb2f8a989060800160405180910390a350505050565b6120a3613225565b61135e600061381b565b6120b5613225565b61135e61386d565b6120c5613225565b60d554612102906001600160a01b0316610bdf60646120fc600f6120f6670de0b6b3a764000064174876e800614d8a565b906138aa565b906138bd565b5060d654612134906001600160a01b0316610bdf60646120fc60196120f6670de0b6b3a764000064174876e800614d8a565b5060d754612166906001600160a01b0316610bdf60646120fc600f6120f6670de0b6b3a764000064174876e800614d8a565b5060d854612198906001600160a01b0316610bdf60646120fc60026120f6670de0b6b3a764000064174876e800614d8a565b5060d3546121ca906001600160a01b0316610bdf60646120fc60036120f6670de0b6b3a764000064174876e800614d8a565b5060d9546121fc906001600160a01b0316610bdf60646120fc60096120f6670de0b6b3a764000064174876e800614d8a565b5060da5461222e906001600160a01b0316610bdf60646120fc60106120f6670de0b6b3a764000064174876e800614d8a565b5060db54611a97906001600160a01b0316610bdf60646120fc600f6120f6670de0b6b3a764000064174876e800614d8a565b612268613225565b60de548114156122d65760405162461bcd60e51b815260206004820152603360248201527f546f6b656e3a2043616e6e6f742075706461746520676173466f7250726f63656044820152727373696e6720746f2073616d652076616c756560681b6064820152608401610f64565b60de5460405182907f40d7e40e79af4e8e5a9b3c57030d8ea93f13d669c06d448c4d631d4ae7d23db790600090a360de55565b606060378054610e9990614dc0565b612320613225565b60cc546001600160a01b03838116911614156123b95760405162461bcd60e51b815260206004820152604c60248201527f546f6b656e3a205468652050616e63616b655377617020706169722063616e6e60448201527f6f742062652072656d6f7665642066726f6d206175746f6d617465644d61726b60648201526b65744d616b6572506169727360a01b608482015260a401610f64565b611bba82826138c9565b600033816123d18286612e12565b9050838110156124315760405162461bcd60e51b815260206004820152602560248201527f45524332303a2064656372656173656420616c6c6f77616e63652062656c6f77604482015264207a65726f60d81b6064820152608401610f64565b61106d8286868403613101565b600033610f2a8185856132f3565b60d25460405163fbcbc0f160e01b81526001600160a01b03838116600483015260009283928392839283928392839283926101009091049091169063fbcbc0f1906024015b6101006040518083038186803b1580156124aa57600080fd5b505afa1580156124be573d6000803e3d6000fd5b505050506040513d601f19601f820116820180604052508101906124e29190614853565b97509750975097509750975097509750919395975091939597565b600054610100900460ff161580801561251d5750600054600160ff909116105b806125375750303b158015612537575060005460ff166001145b61259a5760405162461bcd60e51b815260206004820152602e60248201527f496e697469616c697a61626c653a20636f6e747261637420697320616c72656160448201526d191e481a5b9a5d1a585b1a5e995960921b6064820152608401610f64565b6000805460ff1916600117905580156125bd576000805461ff0019166101001790555b60d480546001600160a01b0319163317905560408051808201825260088152672124a12a37b5b2b760c11b602080830191909152825180840190935260038352622124a160e91b9083015261261191613a2d565b60d45461263d906001600160a01b0316612638670de0b6b3a764000064174876e800614d8a565b613a5e565b612645613b4a565b61264d613b79565b620493e060de55600660cf55600160d055600360d155612679670de0b6b3a7640000633b9aca00614d8a565b60dc556001600160a01b0382166126c85760405162461bcd60e51b815260206004820152601360248201527224a72b2624a22fa922aba0a9222faa27a5a2a760691b6044820152606401610f64565b6001600160a01b0384166127175760405162461bcd60e51b815260206004820152601660248201527524a72b2624a22fa224ab24a222a72a2a2920a1a5a2a960511b6044820152606401610f64565b6001600160a01b03831661275d5760405162461bcd60e51b815260206004820152600d60248201526c24a72b2624a22fa927aaaa22a960991b6044820152606401610f64565b60cd80546001600160a01b0319166001600160a01b038481169190911790915560d28054610100600160a81b031916610100878416810291909117918290556040805163f77c479160e01b815290513094929093049091169163f77c479191600480820192602092909190829003018186803b1580156127dc57600080fd5b505afa1580156127f0573d6000803e3d6000fd5b505050506040513d601f19601f820116820180604052508101906128149190614661565b6001600160a01b0316146128a25760405162461bcd60e51b815260206004820152604960248201527f546f6b656e3a20546865206e6577206469766964656e6420747261636b65722060448201527f6d757374206265206f776e65642062792074686520546f6b656e20746f6b656e6064820152680818dbdb9d1c9858dd60ba1b608482015260a401610f64565b60ce80546001600160a01b0319166001600160a01b0385811691909117918290556040805163c45a015560e01b815290519290911691600091839163c45a015591600480820192602092909190829003018186803b15801561290357600080fd5b505afa158015612917573d6000803e3d6000fd5b505050506040513d601f19601f8201168201806040525081019061293b9190614661565b6001600160a01b031663c9c6539630846001600160a01b031663ad5c46486040518163ffffffff1660e01b815260040160206040518083038186803b15801561298357600080fd5b505afa158015612997573d6000803e3d6000fd5b505050506040513d601f19601f820116820180604052508101906129bb9190614661565b6040516001600160e01b031960e085901b1681526001600160a01b03928316600482015291166024820152604401602060405180830381600087803b158015612a0357600080fd5b505af1158015612a17573d6000803e3d6000fd5b505050506040513d601f19601f82011682018060405250810190612a3b9190614661565b60ca80546001600160a01b038086166001600160a01b03199283161790925560cc8054928416929091169190911790559050612a788160016138c9565b60d25460405163031e79db60e41b81526101009091046001600160a01b031660048201819052906331e79db090602401600060405180830381600087803b158015612ac257600080fd5b505af1158015612ad6573d6000803e3d6000fd5b505060d25460405163031e79db60e41b81523060048201526101009091046001600160a01b031692506331e79db09150602401600060405180830381600087803b158015612b2357600080fd5b505af1158015612b37573d6000803e3d6000fd5b505060d25461010090046001600160a01b031691506331e79db09050612b656097546001600160a01b031690565b6040516001600160e01b031960e084901b1681526001600160a01b039091166004820152602401600060405180830381600087803b158015612ba657600080fd5b505af1158015612bba573d6000803e3d6000fd5b505060d25460405163031e79db60e41b815261dead60048201526101009091046001600160a01b031692506331e79db09150602401600060405180830381600087803b158015612c0957600080fd5b505af1158015612c1d573d6000803e3d6000fd5b50505050612c3e612c366097546001600160a01b031690565b6001806111d8565b612c4a306001806111d8565b612c5961dead600160006111d8565b505060dd805460ff191660011790558015612cae576000805461ff0019169055604051600181527f7f26b83ff96e1f2b6a682f133852f6798a09c465da95921460cefb38474024989060200160405180910390a15b50505050565b612cbc613225565b60dc54811415612d2c5760405162461bcd60e51b815260206004820152603560248201527f546f6b656e3a2043616e6e6f74207570646174652073776170546f6b656e734160448201527474416d6f756e7420746f2073616d652076616c756560581b6064820152608401610f64565b60dc5460405182907febb96427ceba6a46f9f71146db5c30bc7e2fe31285e9bf34b38bbdede7cd5ea190600090a360dc55565b612d67613225565b6001600160a01b038116612d8d5760405162461bcd60e51b8152600401610f6490614cab565b60d880546001600160a01b0319166001600160a01b0392909216919091179055565b612db7613225565b60005b82811015612cae57612e00848483818110612de557634e487b7160e01b600052603260045260246000fd5b9050602002016020810190612dfa9190614645565b83612e58565b80612e0a81614dfb565b915050612dba565b6001600160a01b03918216600090815260346020908152604080832093909416825291909152205490565b612e45613225565b60dd805460ff1916911515919091179055565b612e60613225565b6001600160a01b038216600090815260e2602052604090205460ff1615158115151415612eea5760405162461bcd60e51b815260206004820152603260248201527f546f6b656e3a204163636f756e7420697320616c7265616479207468652076616044820152716c7565206f6620276e6f50726f636573732760701b6064820152608401610f64565b6001600160a01b038216600081815260e26020908152604091829020805460ff191685151590811790915591519182527f227b6cc85a2255b8ae8ab3bc81938fed8f7dc14ca8c6057f4a900c37cff47406910160405180910390a25050565b600060d260019054906101000a90046001600160a01b03166001600160a01b031663e7841ec06040518163ffffffff1660e01b815260040160206040518083038186803b158015611c0e57600080fd5b612fa1613225565b60d25460405163e98030c760e01b8152600481018390526101009091046001600160a01b03169063e98030c790602401600060405180830381600087803b158015612feb57600080fd5b505af11580156110dc573d6000803e3d6000fd5b60008060008060008060008060d260019054906101000a90046001600160a01b03166001600160a01b0316635183d6fd8a6040518263ffffffff1660e01b815260040161249191815260200190565b613056613225565b6001600160a01b0381166130bb5760405162461bcd60e51b815260206004820152602660248201527f4f776e61626c653a206e6577206f776e657220697320746865207a65726f206160448201526564647265737360d01b6064820152608401610f64565b611a978161381b565b6130cc613225565b6001600160a01b0381166130df57600080fd5b60e380546001600160a01b0319166001600160a01b0392909216919091179055565b6001600160a01b0383166131635760405162461bcd60e51b8152602060048201526024808201527f45524332303a20617070726f76652066726f6d20746865207a65726f206164646044820152637265737360e01b6064820152608401610f64565b6001600160a01b0382166131c45760405162461bcd60e51b815260206004820152602260248201527f45524332303a20617070726f766520746f20746865207a65726f206164647265604482015261737360f01b6064820152608401610f64565b6001600160a01b0383811660008181526034602090815260408083209487168084529482529182902085905590518481527f8c5be1e5ebec7d5bd14f71427d1e84f3dd0314c0f7b2291e5b200ac8c7c3b925910160405180910390a3505050565b6097546001600160a01b0316331461135e5760405162461bcd60e51b815260206004820181905260248201527f4f776e61626c653a2063616c6c6572206973206e6f7420746865206f776e65726044820152606401610f64565b600061328b8484612e12565b90506000198114612cae57818110156132e65760405162461bcd60e51b815260206004820152601d60248201527f45524332303a20696e73756666696369656e7420616c6c6f77616e63650000006044820152606401610f64565b612cae8484848403613101565b60df5460ff166133455760405162461bcd60e51b815260206004820152601960248201527f45524332303a20756e61626c6520746f207472616e73666572000000000000006044820152606401610f64565b6001600160a01b03831661336b5760405162461bcd60e51b8152600401610f6490614c1b565b6001600160a01b0382166133915760405162461bcd60e51b8152600401610f6490614b87565b61339b8382613ba8565b6133e75760405162461bcd60e51b815260206004820152601c60248201527f4e6f7420656e6f75676820617661696c61626c652062616c616e6365000000006044820152606401610f64565b806133fd576133f883836000613c78565b611161565b3060009081526033602052604090205460dc5460dd54908210159060ff16801561342a575060d25460ff16155b801561344f57506001600160a01b038416600090815260e2602052604090205460ff16155b80156134585750805b156134be5760d2805460ff1916600117905560dc5460cf5460d154919350600091613495916134879190613dd7565b60d1546120fc9086906138aa565b90506134a081613de3565b6134b26134ad8483613e6a565b613e76565b5060d2805460ff191690555b60d2546001600160a01b038616600090815260e0602052604090205460ff9182161591168061350557506001600160a01b038516600090815260e1602052604090205460ff165b1561350e575060005b801561358d57600061353c60646120fc61353560cf5460d154613dd790919063ffffffff16565b88906138aa565b9050600061355a60646120fc60d054896138aa90919063ffffffff16565b90506135708161356a8885613e6a565b90613e6a565b955061357f8861dead83613c78565b61358a883084613c78565b50505b613598868686613c78565b60d25461010090046001600160a01b031663e30443bc876135ce816001600160a01b031660009081526033602052604090205490565b6040516001600160e01b031960e085901b1681526001600160a01b0390921660048301526024820152604401600060405180830381600087803b15801561361457600080fd5b505af1925050508015613625575060015b5060d25461010090046001600160a01b031663e30443bc8661365c816001600160a01b031660009081526033602052604090205490565b6040516001600160e01b031960e085901b1681526001600160a01b0390921660048301526024820152604401600060405180830381600087803b1580156136a257600080fd5b505af19250505080156136b3575060015b5060d25460ff161580156136e057506001600160a01b038516600090815260e2602052604090205460ff16155b156137c15760de5460d2546040516001624d3b8760e01b03198152600481018390526101009091046001600160a01b03169063ffb2c47990602401606060405180830381600087803b15801561373557600080fd5b505af1925050508015613765575060408051601f3d908101601f1916820190925261376291810190614b07565b60015b61376e576137bf565b60408051848152602081018490529081018290526060810185905232906001907fc864333d6121033635ab41b29ae52f10a22cf4438c3e4f1c4c68518feb2f8a989060800160405180910390a35050505b505b505050505050565b6137d1614037565b6065805460ff191690557f5db9ee0a495bf2e6ff9c91a7834c1ba4fdd244a5e8aa4e537bd38aeae4b073aa335b6040516001600160a01b03909116815260200160405180910390a1565b609780546001600160a01b038381166001600160a01b0319831681179093556040519116919082907f8be0079c531659141344cd1fd0a4f28419497f9722a3daafe3b4186f6b6457e090600090a35050565b613875614080565b6065805460ff191660011790557f62e78cea01bee320cd4e420270b5ea74000d11b0c9f74754ebdbfc544b05a2586137fe3390565b60006138b68284614d8a565b9392505050565b60006138b68284614d6a565b6001600160a01b038216600090815260e4602052604090205460ff161515811515141561395e5760405162461bcd60e51b815260206004820152603f60248201527f546f6b656e3a204175746f6d61746564206d61726b6574206d616b657220706160448201527f697220697320616c72656164792073657420746f20746861742076616c7565006064820152608401610f64565b6001600160a01b038216600090815260e460205260409020805460ff191682158015919091179091556139f15760d25460405163031e79db60e41b81526001600160a01b038481166004830152610100909204909116906331e79db090602401600060405180830381600087803b1580156139d857600080fd5b505af11580156139ec573d6000803e3d6000fd5b505050505b604051811515906001600160a01b038416907fffa9187bf1f18bf477bd0ea1bcbb64e93b6a98132473929edfce215cd9b16fab90600090a35050565b600054610100900460ff16613a545760405162461bcd60e51b8152600401610f6490614c60565b611bba82826140c6565b6001600160a01b038216613ab45760405162461bcd60e51b815260206004820152601f60248201527f45524332303a206d696e7420746f20746865207a65726f2061646472657373006044820152606401610f64565b613ac060008383614114565b8060356000828254613ad29190614d52565b90915550506001600160a01b03821660009081526033602052604081208054839290613aff908490614d52565b90915550506040518181526001600160a01b038316906000907fddf252ad1be2c89b69c2b068fc378daa952ba7f163c4a11628f55a4df523b3ef9060200160405180910390a3611bba565b600054610100900460ff16613b715760405162461bcd60e51b8152600401610f6490614c60565b61135e61411c565b600054610100900460ff16613ba05760405162461bcd60e51b8152600401610f6490614c60565b61135e61414f565b60cb546000906001600160a01b0316613bc357506001610f30565b60cb54604051635bc5254960e11b81526001600160a01b038581166004830152600092169063b78a4a929060240160206040518083038186803b158015613c0957600080fd5b505afa158015613c1d573d6000803e3d6000fd5b505050506040513d601f19601f82011682018060405250810190613c419190614aef565b90508281613c64866001600160a01b031660009081526033602052604090205490565b613c6e9190614da9565b1015949350505050565b6001600160a01b038316613c9e5760405162461bcd60e51b8152600401610f6490614c1b565b6001600160a01b038216613cc45760405162461bcd60e51b8152600401610f6490614b87565b613ccf838383614114565b6001600160a01b03831660009081526033602052604090205481811015613d475760405162461bcd60e51b815260206004820152602660248201527f45524332303a207472616e7366657220616d6f756e7420657863656564732062604482015265616c616e636560d01b6064820152608401610f64565b6001600160a01b03808516600090815260336020526040808220858503905591851681529081208054849290613d7e908490614d52565b92505081905550826001600160a01b0316846001600160a01b03167fddf252ad1be2c89b69c2b068fc378daa952ba7f163c4a11628f55a4df523b3ef84604051613dca91815260200190565b60405180910390a3612cae565b60006138b68284614d52565b6000613df08260026138bd565b90506000613dfe8383613e6a565b905047613e0a8361417f565b6000613e164783613e6a565b9050613e2283826142fc565b60408051858152602081018390529081018490527f17bbfb9a6069321b6ded73bd96327c9e6b7212a5cd51ff219cd61370acafb5619060600160405180910390a15050505050565b60006138b68284614da9565b613e7f816143b6565b60cd546040516370a0823160e01b81523060048201526000916001600160a01b0316906370a082319060240160206040518083038186803b158015613ec357600080fd5b505afa158015613ed7573d6000803e3d6000fd5b505050506040513d601f19601f82011682018060405250810190613efb9190614aef565b60cd5460d25460405163a9059cbb60e01b81526001600160a01b03610100909204821660048201526024810184905292935060009291169063a9059cbb90604401602060405180830381600087803b158015613f5657600080fd5b505af1158015613f6a573d6000803e3d6000fd5b505050506040513d601f19601f82011682018060405250810190613f8e9190614a79565b905080156111615760d254604051633243c79160e01b8152600481018490526101009091046001600160a01b031690633243c79190602401600060405180830381600087803b158015613fe057600080fd5b505af1158015613ff4573d6000803e3d6000fd5b505060408051868152602081018690527f80195cc573b02cc48460cbca6e6e4cc85ddb91959d946e1c3025ea3d87942dc3935001905060405180910390a1505050565b60655460ff1661135e5760405162461bcd60e51b815260206004820152601460248201527314185d5cd8589b194e881b9bdd081c185d5cd95960621b6044820152606401610f64565b60655460ff161561135e5760405162461bcd60e51b815260206004820152601060248201526f14185d5cd8589b194e881c185d5cd95960821b6044820152606401610f64565b600054610100900460ff166140ed5760405162461bcd60e51b8152600401610f6490614c60565b8151614100906036906020850190614546565b508051611161906037906020840190614546565b6133f8614080565b600054610100900460ff166141435760405162461bcd60e51b8152600401610f6490614c60565b6065805460ff19169055565b600054610100900460ff166141765760405162461bcd60e51b8152600401610f6490614c60565b61135e3361381b565b60408051600280825260608201835260009260208301908036833701905050905030816000815181106141c257634e487b7160e01b600052603260045260246000fd5b6001600160a01b0392831660209182029290920181019190915260ca54604080516315ab88c960e31b81529051919093169263ad5c4648926004808301939192829003018186803b15801561421657600080fd5b505afa15801561422a573d6000803e3d6000fd5b505050506040513d601f19601f8201168201806040525081019061424e9190614661565b8160018151811061426f57634e487b7160e01b600052603260045260246000fd5b6001600160a01b03928316602091820292909201015260ca546142959130911684613101565b60ca5460405163791ac94760e01b81526001600160a01b039091169063791ac947906142ce908590600090869030904290600401614ce2565b600060405180830381600087803b1580156142e857600080fd5b505af11580156137c1573d6000803e3d6000fd5b60ca546143149030906001600160a01b031684613101565b60ca5460405163f305d71960e01b815230600482015260248101849052600060448201819052606482015261dead60848201524260a48201526001600160a01b039091169063f305d71990839060c4016060604051808303818588803b15801561437d57600080fd5b505af1158015614391573d6000803e3d6000fd5b50505050506040513d601f19601f820116820180604052508101906110dc9190614b07565b604080516003808252608082019092526000916020820160608036833701905050905030816000815181106143fb57634e487b7160e01b600052603260045260246000fd5b6001600160a01b0392831660209182029290920181019190915260ca54604080516315ab88c960e31b81529051919093169263ad5c4648926004808301939192829003018186803b15801561444f57600080fd5b505afa158015614463573d6000803e3d6000fd5b505050506040513d601f19601f820116820180604052508101906144879190614661565b816001815181106144a857634e487b7160e01b600052603260045260246000fd5b6001600160a01b03928316602091820292909201015260cd548251911690829060029081106144e757634e487b7160e01b600052603260045260246000fd5b6001600160a01b03928316602091820292909201015260ca5461450d9130911684613101565b60ca54604051635c11d79560e01b81526001600160a01b0390911690635c11d795906142ce908590600090869030904290600401614ce2565b82805461455290614dc0565b90600052602060002090601f01602090048101928261457457600085556145ba565b82601f1061458d57805160ff19168380011785556145ba565b828001600101855582156145ba579182015b828111156145ba57825182559160200191906001019061459f565b506145c69291506145ca565b5090565b5b808211156145c657600081556001016145cb565b8035610fff81614e42565b60008083601f8401126145fb578081fd5b50813567ffffffffffffffff811115614612578182fd5b602083019150836020808302850101111561462c57600080fd5b9250929050565b803561ffff81168114610fff57600080fd5b600060208284031215614656578081fd5b81356138b681614e42565b600060208284031215614672578081fd5b81516138b681614e42565b6000806040838503121561468f578081fd5b823561469a81614e42565b915060208301356146aa81614e42565b809150509250929050565b6000806000606084860312156146c9578081fd5b83356146d481614e42565b925060208401356146e481614e42565b915060408401356146f481614e42565b809150509250925092565b600080600080600080600080610100898b03121561471b578384fd5b883561472681614e42565b9750602089013561473681614e42565b9650604089013561474681614e42565b9550606089013561475681614e42565b9450608089013561476681614e42565b935060a089013561477681614e42565b925060c089013561478681614e42565b915060e089013561479681614e42565b809150509295985092959890939650565b6000806000606084860312156147bb578283fd5b83356147c681614e42565b925060208401356147d681614e42565b929592945050506040919091013590565b600080604083850312156147f9578182fd5b823561480481614e42565b915060208301356146aa81614e57565b600080600060608486031215614828578283fd5b833561483381614e42565b9250602084013561484381614e57565b915060408401356146f481614e57565b600080600080600080600080610100898b03121561486f578384fd5b885161487a81614e42565b809850506020890151965060408901519550606089015194506080890151935060a0890151925060c0890151915060e089015190509295985092959890939650565b600080604083850312156148ce578182fd5b82356148d981614e42565b946020939093013593505050565b6000806000604084860312156148fb578081fd5b833567ffffffffffffffff811115614911578182fd5b61491d868287016145ea565b90945092505060208401356146f481614e57565b60008060008060608587031215614946578182fd5b843567ffffffffffffffff81111561495c578283fd5b614968878288016145ea565b909550935050602085013561497c81614e57565b9150604085013561498c81614e57565b939692955090935050565b600060208083850312156149a9578182fd5b823567ffffffffffffffff808211156149c0578384fd5b818501915085601f8301126149d3578384fd5b8135818111156149e5576149e5614e2c565b838102604051601f19603f83011681018181108582111715614a0957614a09614e2c565b604052828152858101935084860182860187018a1015614a27578788fd5b8795505b83861015614a5057614a3c816145df565b855260019590950194938601938601614a2b565b5098975050505050505050565b600060208284031215614a6e578081fd5b81356138b681614e57565b600060208284031215614a8a578081fd5b81516138b681614e57565b600080600060608486031215614aa9578081fd5b614ab284614633565b9250614ac060208501614633565b9150614ace60408501614633565b90509250925092565b600060208284031215614ae8578081fd5b5035919050565b600060208284031215614b00578081fd5b5051919050565b600080600060608486031215614b1b578081fd5b8351925060208401519150604084015190509250925092565b6000602080835283518082850152825b81811015614b6057858101830151858201604001528201614b44565b81811115614b715783604083870101525b50601f01601f1916929092016040019392505050565b60208082526023908201527f45524332303a207472616e7366657220746f20746865207a65726f206164647260408201526265737360e81b606082015260800190565b60208082526031908201527f546f6b656e3a204163636f756e7420697320616c7265616479207468652076616040820152706c7565206f6620276578636c756465642760781b606082015260800190565b60208082526025908201527f45524332303a207472616e736665722066726f6d20746865207a65726f206164604082015264647265737360d81b606082015260800190565b6020808252602b908201527f496e697469616c697a61626c653a20636f6e7472616374206973206e6f74206960408201526a6e697469616c697a696e6760a81b606082015260800190565b60208082526019908201527f77206973206e6f7420746865207a65726f206164647265737300000000000000604082015260600190565b600060a082018783526020878185015260a0604085015281875180845260c0860191508289019350845b81811015614d315784516001600160a01b031683529383019391830191600101614d0c565b50506001600160a01b03969096166060850152505050608001529392505050565b60008219821115614d6557614d65614e16565b500190565b600082614d8557634e487b7160e01b81526012600452602481fd5b500490565b6000816000190483118215151615614da457614da4614e16565b500290565b600082821015614dbb57614dbb614e16565b500390565b600281046001821680614dd457607f821691505b60208210811415614df557634e487b7160e01b600052602260045260246000fd5b50919050565b6000600019821415614e0f57614e0f614e16565b5060010190565b634e487b7160e01b600052601160045260246000fd5b634e487b7160e01b600052604160045260246000fd5b6001600160a01b0381168114611a9757600080fd5b8015158114611a9757600080fdfea2646970667358221220a2dfbd5afc317b60f43cecfe683dd20bbaf81f7cafac5d5400600f7629761d5664736f6c63430008020033",
  "linkReferences": {},
  "deployedLinkReferences": {}
}