{
  "_format": "hh-sol-artifact-1",
  "contractName": "InitializableUpgradeabilityProxy",
  "sourceName": "contracts/deps/InitializableUpgradeabilityProxy.sol",
  "abi": [
    {
      "anonymous": false,
      "inputs": [
        {
          "indexed": true,
          "internalType": "address",
          "name": "implementation",
          "type": "address"
        }
      ],
      "name": "Upgraded",
      "type": "event"
    },
    {
      "stateMutability": "payable",
      "type": "fallback"
    },
    {
      "inputs": [
        {
          "internalType": "address",
          "name": "_logic",
          "type": "address"
        },
        {
          "internalType": "bytes",
          "name": "_data",
          "type": "bytes"
        }
      ],
      "name": "initialize",
      "outputs": [],
      "stateMutability": "payable",
      "type": "function"
    }
  ],
  "bytecode": "0x608060405234801561001057600080fd5b506103dc806100206000396000f3fe60806040526004361061001e5760003560e01c8063d1f5789414610028575b61002661003b565b005b61002661003636600461024a565b61005b565b6100596100546000805160206103878339815191525490565b610159565b565b60006100736000805160206103878339815191525490565b6001600160a01b03161461008657600080fd5b6100b160017f360894a13ba1a3210667c828492db98dca3e2076cc3735a920a3ca505d382bbd61034d565b600080516020610387833981519152146100db57634e487b7160e01b600052600160045260246000fd5b6100e48261017d565b805115610155576000826001600160a01b0316826040516101059190610314565b600060405180830381855af49150503d8060008114610140576040519150601f19603f3d011682016040523d82523d6000602084013e610145565b606091505b505090508061015357600080fd5b505b5050565b3660008037600080366000845af43d6000803e808015610178573d6000f35b3d6000fd5b6101868161020e565b6101fc5760405162461bcd60e51b815260206004820152603b60248201527f43616e6e6f742073657420612070726f787920696d706c656d656e746174696f60448201527f6e20746f2061206e6f6e2d636f6e747261637420616464726573730000000000606482015260840160405180910390fd5b60008051602061038783398151915255565b6000813f7fc5d2460186f7233c927e7db2dcc703c0e500b653ca82273b7bfad8045d85a47081811480159061024257508115155b949350505050565b6000806040838503121561025c578182fd5b82356001600160a01b0381168114610272578283fd5b9150602083013567ffffffffffffffff8082111561028e578283fd5b818501915085601f8301126102a1578283fd5b8135818111156102b3576102b3610370565b604051601f8201601f19908116603f011681019083821181831017156102db576102db610370565b816040528281528860208487010111156102f3578586fd5b82602086016020830137856020848301015280955050505050509250929050565b60008251815b81811015610334576020818601810151858301520161031a565b818111156103425782828501525b509190910192915050565b60008282101561036b57634e487b7160e01b81526011600452602481fd5b500390565b634e487b7160e01b600052604160045260246000fdfe360894a13ba1a3210667c828492db98dca3e2076cc3735a920a3ca505d382bbca2646970667358221220edd17e7819700dc98809e1c83c029bed46edad7e6e4d5cf00846c8c7023e5ef264736f6c63430008020033",
  "linkReferences": {},
  "deployedLinkReferences": {}
}