{
  "_format": "hh-sol-artifact-1",
  "contractName": "VestingToken",
  "sourceName": "contracts/vest/VestingToken.sol",
  "abi": [
    {
      "inputs": [
        {
          "internalType": "address",
          "name": "beneficiaryAddress",
          "type": "address"
        },
        {
          "internalType": "uint64",
          "name": "startTimestamp",
          "type": "uint64"
        },
        {
          "internalType": "uint64",
          "name": "durationSeconds",
          "type": "uint64"
        }
      ],
      "stateMutability": "nonpayable",
      "type": "constructor"
    },
    {
      "anonymous": false,
      "inputs": [
        {
          "indexed": true,
          "internalType": "address",
          "name": "token",
          "type": "address"
        },
        {
          "indexed": false,
          "internalType": "uint256",
          "name": "amount",
          "type": "uint256"
        }
      ],
      "name": "ERC20Released",
      "type": "event"
    },
    {
      "anonymous": false,
      "inputs": [
        {
          "indexed": false,
          "internalType": "uint256",
          "name": "amount",
          "type": "uint256"
        }
      ],
      "name": "EtherReleased",
      "type": "event"
    },
    {
      "inputs": [],
      "name": "beneficiary",
      "outputs": [
        {
          "internalType": "address",
          "name": "",
          "type": "address"
        }
      ],
      "stateMutability": "view",
      "type": "function"
    },
    {
      "inputs": [],
      "name": "duration",
      "outputs": [
        {
          "internalType": "uint256",
          "name": "",
          "type": "uint256"
        }
      ],
      "stateMutability": "view",
      "type": "function"
    },
    {
      "inputs": [
        {
          "internalType": "address",
          "name": "token",
          "type": "address"
        }
      ],
      "name": "release",
      "outputs": [],
      "stateMutability": "nonpayable",
      "type": "function"
    },
    {
      "inputs": [],
      "name": "release",
      "outputs": [],
      "stateMutability": "nonpayable",
      "type": "function"
    },
    {
      "inputs": [],
      "name": "released",
      "outputs": [
        {
          "internalType": "uint256",
          "name": "",
          "type": "uint256"
        }
      ],
      "stateMutability": "view",
      "type": "function"
    },
    {
      "inputs": [
        {
          "internalType": "address",
          "name": "token",
          "type": "address"
        }
      ],
      "name": "released",
      "outputs": [
        {
          "internalType": "uint256",
          "name": "",
          "type": "uint256"
        }
      ],
      "stateMutability": "view",
      "type": "function"
    },
    {
      "inputs": [],
      "name": "start",
      "outputs": [
        {
          "internalType": "uint256",
          "name": "",
          "type": "uint256"
        }
      ],
      "stateMutability": "view",
      "type": "function"
    },
    {
      "inputs": [
        {
          "internalType": "uint64",
          "name": "timestamp",
          "type": "uint64"
        }
      ],
      "name": "vestedAmount",
      "outputs": [
        {
          "internalType": "uint256",
          "name": "",
          "type": "uint256"
        }
      ],
      "stateMutability": "view",
      "type": "function"
    },
    {
      "inputs": [
        {
          "internalType": "address",
          "name": "token",
          "type": "address"
        },
        {
          "internalType": "uint64",
          "name": "timestamp",
          "type": "uint64"
        }
      ],
      "name": "vestedAmount",
      "outputs": [
        {
          "internalType": "uint256",
          "name": "",
          "type": "uint256"
        }
      ],
      "stateMutability": "view",
      "type": "function"
    },
    {
      "stateMutability": "payable",
      "type": "receive"
    }
  ],
  "bytecode": "0x60e060405234801561001057600080fd5b50604051610b58380380610b5883398101604081905261002f916100f3565b8282826001600160a01b03831661009f5760405162461bcd60e51b815260206004820152602a60248201527f56657374696e6757616c6c65743a2062656e6566696369617279206973207a65604482015269726f206164647265737360b01b606482015260840160405180910390fd5b60609290921b6001600160601b03191660805260c090811b6001600160c01b031990811660a05291811b909116905250610142915050565b80516001600160401b03811681146100ee57600080fd5b919050565b600080600060608486031215610107578283fd5b83516001600160a01b038116811461011d578384fd5b925061012b602085016100d7565b9150610139604085016100d7565b90509250925092565b60805160601c60a05160c01c60c05160c01c6109c961018f600039600081816101140152818161046201526104b70152600061041a01526000818161017e015261030601526109c96000f3fe60806040526004361061008a5760003560e01c8063810ec23b11610059578063810ec23b146101a857806386d1a69f146101c857806396132521146101dd5780639852595c146101f2578063be9a655514610228576100cd565b80630a17b06b146100d25780630fb5a6b414610105578063191655871461014257806338af3eed14610164576100cd565b366100cd5760405162461bcd60e51b815260206004820152600e60248201526d0554e535550504f525445445f4f560941b60448201526064015b60405180910390fd5b600080fd5b3480156100de57600080fd5b506100f26100ed366004610876565b61023d565b6040519081526020015b60405180910390f35b34801561011157600080fd5b507f000000000000000000000000000000000000000000000000000000000000000067ffffffffffffffff166100f2565b34801561014e57600080fd5b5061016261015d3660046107f2565b610263565b005b34801561017057600080fd5b506040516001600160a01b037f00000000000000000000000000000000000000000000000000000000000000001681526020016100fc565b3480156101b457600080fd5b506100f26101c336600461080c565b61032f565b3480156101d457600080fd5b506101626103d6565b3480156101e957600080fd5b506000546100f2565b3480156101fe57600080fd5b506100f261020d3660046107f2565b6001600160a01b031660009081526001602052604090205490565b34801561023457600080fd5b506100f261040f565b600061025b61024b60005490565b61025590476108df565b8361043d565b90505b919050565b6001600160a01b038116600090815260016020526040812054610286834261032f565b6102909190610936565b6001600160a01b0383166000908152600160205260408120805492935083929091906102bd9084906108df565b90915550506040518181526001600160a01b038316907fc0e523490dd523c33b1878c9eb14ff46991e3f5b2cd33710918618f2a39cba1b9060200160405180910390a261032b827f000000000000000000000000000000000000000000000000000000000000000083610517565b5050565b6001600160a01b0382166000908152600160205260408120546103cd906040516370a0823160e01b81523060048201526001600160a01b038616906370a082319060240160206040518083038186803b15801561038b57600080fd5b505afa15801561039f573d6000803e3d6000fd5b505050506040513d601f19601f820116820180604052508101906103c3919061085e565b61025591906108df565b90505b92915050565b60405162461bcd60e51b815260206004820152600e60248201526d0554e535550504f525445445f4f560941b60448201526064016100c4565b67ffffffffffffffff7f00000000000000000000000000000000000000000000000000000000000000001690565b600061044761040f565b8267ffffffffffffffff161015610460575060006103d0565b7f000000000000000000000000000000000000000000000000000000000000000067ffffffffffffffff1661049361040f565b61049d91906108df565b8267ffffffffffffffff1611156104b55750816103d0565b7f000000000000000000000000000000000000000000000000000000000000000067ffffffffffffffff166104e861040f565b6104fc9067ffffffffffffffff8516610936565b6105069085610917565b61051091906108f7565b90506103d0565b604080516001600160a01b038416602482015260448082018490528251808303909101815260649091019091526020810180516001600160e01b031663a9059cbb60e01b17905261056990849061056e565b505050565b60006105c3826040518060400160405280602081526020017f5361666545524332303a206c6f772d6c6576656c2063616c6c206661696c6564815250856001600160a01b03166106409092919063ffffffff16565b80519091501561056957808060200190518101906105e1919061083e565b6105695760405162461bcd60e51b815260206004820152602a60248201527f5361666545524332303a204552433230206f7065726174696f6e20646964206e6044820152691bdd081cdd58d8d9595960b21b60648201526084016100c4565b606061064f8484600085610659565b90505b9392505050565b6060824710156106ba5760405162461bcd60e51b815260206004820152602660248201527f416464726573733a20696e73756666696369656e742062616c616e636520666f6044820152651c8818d85b1b60d21b60648201526084016100c4565b6001600160a01b0385163b6107115760405162461bcd60e51b815260206004820152601d60248201527f416464726573733a2063616c6c20746f206e6f6e2d636f6e747261637400000060448201526064016100c4565b600080866001600160a01b0316858760405161072d9190610890565b60006040518083038185875af1925050503d806000811461076a576040519150601f19603f3d011682016040523d82523d6000602084013e61076f565b606091505b509150915061077f82828661078a565b979650505050505050565b60608315610799575081610652565b8251156107a95782518084602001fd5b8160405162461bcd60e51b81526004016100c491906108ac565b80356001600160a01b038116811461025e57600080fd5b803567ffffffffffffffff8116811461025e57600080fd5b600060208284031215610803578081fd5b6103cd826107c3565b6000806040838503121561081e578081fd5b610827836107c3565b9150610835602084016107da565b90509250929050565b60006020828403121561084f578081fd5b81518015158114610652578182fd5b60006020828403121561086f578081fd5b5051919050565b600060208284031215610887578081fd5b6103cd826107da565b600082516108a281846020870161094d565b9190910192915050565b60006020825282518060208401526108cb81604085016020870161094d565b601f01601f19169190910160400192915050565b600082198211156108f2576108f261097d565b500190565b60008261091257634e487b7160e01b81526012600452602481fd5b500490565b60008160001904831182151516156109315761093161097d565b500290565b6000828210156109485761094861097d565b500390565b60005b83811015610968578181015183820152602001610950565b83811115610977576000848401525b50505050565b634e487b7160e01b600052601160045260246000fdfea2646970667358221220750f254dfbc36691dcadaa9a9d384f42c486b139a8745f705449138bcbc1ff8064736f6c63430008020033",
  "linkReferences": {},
  "deployedLinkReferences": {}
}