{
  "_format": "hh-sol-artifact-1",
  "contractName": "FreezeToken",
  "sourceName": "contracts/token/FreezeToken.sol",
  "abi": [
    {
      "inputs": [
        {
          "internalType": "address",
          "name": "_cntr",
          "type": "address"
        }
      ],
      "stateMutability": "nonpayable",
      "type": "constructor"
    },
    {
      "anonymous": false,
      "inputs": [
        {
          "indexed": true,
          "internalType": "address",
          "name": "previousOwner",
          "type": "address"
        },
        {
          "indexed": true,
          "internalType": "address",
          "name": "newOwner",
          "type": "address"
        }
      ],
      "name": "OwnershipTransferred",
      "type": "event"
    },
    {
      "inputs": [
        {
          "internalType": "address",
          "name": "account",
          "type": "address"
        },
        {
          "internalType": "uint256",
          "name": "amount",
          "type": "uint256"
        }
      ],
      "name": "addFreezeToken",
      "outputs": [],
      "stateMutability": "nonpayable",
      "type": "function"
    },
    {
      "inputs": [],
      "name": "cntr",
      "outputs": [
        {
          "internalType": "address",
          "name": "",
          "type": "address"
        }
      ],
      "stateMutability": "view",
      "type": "function"
    },
    {
      "inputs": [],
      "name": "controller",
      "outputs": [
        {
          "internalType": "address",
          "name": "",
          "type": "address"
        }
      ],
      "stateMutability": "view",
      "type": "function"
    },
    {
      "inputs": [
        {
          "internalType": "address",
          "name": "",
          "type": "address"
        }
      ],
      "name": "freezeMap",
      "outputs": [
        {
          "internalType": "uint256",
          "name": "",
          "type": "uint256"
        }
      ],
      "stateMutability": "view",
      "type": "function"
    },
    {
      "inputs": [
        {
          "internalType": "address",
          "name": "_account",
          "type": "address"
        }
      ],
      "name": "getFreezeAmount",
      "outputs": [
        {
          "internalType": "uint256",
          "name": "",
          "type": "uint256"
        }
      ],
      "stateMutability": "view",
      "type": "function"
    },
    {
      "inputs": [],
      "name": "owner",
      "outputs": [
        {
          "internalType": "address",
          "name": "",
          "type": "address"
        }
      ],
      "stateMutability": "view",
      "type": "function"
    },
    {
      "inputs": [],
      "name": "renounceOwnership",
      "outputs": [],
      "stateMutability": "nonpayable",
      "type": "function"
    },
    {
      "inputs": [
        {
          "internalType": "address",
          "name": "_cntr",
          "type": "address"
        }
      ],
      "name": "setController",
      "outputs": [],
      "stateMutability": "nonpayable",
      "type": "function"
    },
    {
      "inputs": [
        {
          "internalType": "address",
          "name": "newOwner",
          "type": "address"
        }
      ],
      "name": "transferOwnership",
      "outputs": [],
      "stateMutability": "nonpayable",
      "type": "function"
    }
  ],
  "bytecode": "0x608060405234801561001057600080fd5b506040516105e33803806105e383398101604081905261002f916100f8565b610038336100a8565b6002546001600160a01b0316156100835760405162461bcd60e51b815260206004820152600b60248201526a24a72b2624a22fa0a2222960a91b604482015260640160405180910390fd5b600280546001600160a01b0319166001600160a01b0392909216919091179055610126565b600080546001600160a01b038381166001600160a01b0319831681178455604051919092169283917f8be0079c531659141344cd1fd0a4f28419497f9722a3daafe3b4186f6b6457e09190a35050565b600060208284031215610109578081fd5b81516001600160a01b038116811461011f578182fd5b9392505050565b6104ae806101356000396000f3fe608060405234801561001057600080fd5b50600436106100935760003560e01c80638da5cb5b116100665780638da5cb5b1461011357806392eefe9b14610124578063b78a4a9214610137578063f2fde38b1461014a578063f77c47911461015d57610093565b806306b22fe914610098578063715018a6146100ad578063731f3b4c146100b5578063855d3af3146100e5575b600080fd5b6100ab6100a636600461042b565b61016e565b005b6100ab6101f0565b6002546100c8906001600160a01b031681565b6040516001600160a01b0390911681526020015b60405180910390f35b6101056100f336600461040a565b60016020526000908152604090205481565b6040519081526020016100dc565b6000546001600160a01b03166100c8565b6100ab61013236600461040a565b610204565b61010561014536600461040a565b61026d565b6100ab61015836600461040a565b61028c565b6002546001600160a01b03166100c8565b6002546001600160a01b031633148061019157506000546001600160a01b031633145b6101e25760405162461bcd60e51b815260206004820152601860248201527f4f4e4c595f434f4e54524f4c4c45525f4f525f4f574e4552000000000000000060448201526064015b60405180910390fd5b6101ec8282610305565b5050565b6101f8610349565b61020260006103a3565b565b6002546001600160a01b03161561024b5760405162461bcd60e51b815260206004820152600b60248201526a24a72b2624a22fa0a2222960a91b60448201526064016101d9565b600280546001600160a01b0319166001600160a01b0392909216919091179055565b6001600160a01b0381166000908152600160205260409020545b919050565b610294610349565b6001600160a01b0381166102f95760405162461bcd60e51b815260206004820152602660248201527f4f776e61626c653a206e6577206f776e657220697320746865207a65726f206160448201526564647265737360d01b60648201526084016101d9565b610302816103a3565b50565b6001600160a01b038216600090815260016020526040902054610329908290610454565b6001600160a01b0390921660009081526001602052604090209190915550565b6000546001600160a01b031633146102025760405162461bcd60e51b815260206004820181905260248201527f4f776e61626c653a2063616c6c6572206973206e6f7420746865206f776e657260448201526064016101d9565b600080546001600160a01b038381166001600160a01b0319831681178455604051919092169283917f8be0079c531659141344cd1fd0a4f28419497f9722a3daafe3b4186f6b6457e09190a35050565b80356001600160a01b038116811461028757600080fd5b60006020828403121561041b578081fd5b610424826103f3565b9392505050565b6000806040838503121561043d578081fd5b610446836103f3565b946020939093013593505050565b6000821982111561047357634e487b7160e01b81526011600452602481fd5b50019056fea2646970667358221220c012be9b84738b40459def6848f4d6a2df08554e08178c9b197b7f45683a531b64736f6c63430008020033",
  "linkReferences": {},
  "deployedLinkReferences": {}
}