{
  "_format": "hh-sol-artifact-1",
  "contractName": "InitializableAdminUpgradeabilityProxy",
  "sourceName": "contracts/deps/InitializableAdminUpgradeabilityProxy.sol",
  "abi": [
    {
      "anonymous": false,
      "inputs": [
        {
          "indexed": false,
          "internalType": "address",
          "name": "previousAdmin",
          "type": "address"
        },
        {
          "indexed": false,
          "internalType": "address",
          "name": "newAdmin",
          "type": "address"
        }
      ],
      "name": "AdminChanged",
      "type": "event"
    },
    {
      "anonymous": false,
      "inputs": [
        {
          "indexed": true,
          "internalType": "address",
          "name": "implementation",
          "type": "address"
        }
      ],
      "name": "Upgraded",
      "type": "event"
    },
    {
      "stateMutability": "payable",
      "type": "fallback"
    },
    {
      "inputs": [],
      "name": "admin",
      "outputs": [
        {
          "internalType": "address",
          "name": "",
          "type": "address"
        }
      ],
      "stateMutability": "nonpayable",
      "type": "function"
    },
    {
      "inputs": [
        {
          "internalType": "address",
          "name": "newAdmin",
          "type": "address"
        }
      ],
      "name": "changeAdmin",
      "outputs": [],
      "stateMutability": "nonpayable",
      "type": "function"
    },
    {
      "inputs": [],
      "name": "implementation",
      "outputs": [
        {
          "internalType": "address",
          "name": "",
          "type": "address"
        }
      ],
      "stateMutability": "nonpayable",
      "type": "function"
    },
    {
      "inputs": [
        {
          "internalType": "address",
          "name": "_logic",
          "type": "address"
        },
        {
          "internalType": "address",
          "name": "_admin",
          "type": "address"
        },
        {
          "internalType": "bytes",
          "name": "_data",
          "type": "bytes"
        }
      ],
      "name": "initialize",
      "outputs": [],
      "stateMutability": "payable",
      "type": "function"
    },
    {
      "inputs": [
        {
          "internalType": "address",
          "name": "_logic",
          "type": "address"
        },
        {
          "internalType": "bytes",
          "name": "_data",
          "type": "bytes"
        }
      ],
      "name": "initialize",
      "outputs": [],
      "stateMutability": "payable",
      "type": "function"
    },
    {
      "inputs": [
        {
          "internalType": "address",
          "name": "newImplementation",
          "type": "address"
        }
      ],
      "name": "upgradeTo",
      "outputs": [],
      "stateMutability": "nonpayable",
      "type": "function"
    },
    {
      "inputs": [
        {
          "internalType": "address",
          "name": "newImplementation",
          "type": "address"
        },
        {
          "internalType": "bytes",
          "name": "data",
          "type": "bytes"
        }
      ],
      "name": "upgradeToAndCall",
      "outputs": [],
      "stateMutability": "payable",
      "type": "function"
    }
  ],
  "bytecode": "0x608060405234801561001057600080fd5b50610a3f806100206000396000f3fe6080604052600436106100705760003560e01c80638f2839701161004e5780638f283970146100de578063cf7a1d77146100fe578063d1f5789414610111578063f851a4401461012457610070565b80633659cfe61461007a5780634f1ef2861461009a5780635c60da1b146100ad575b610078610139565b005b34801561008657600080fd5b50610078610095366004610800565b610161565b6100786100a836600461087d565b6101a3565b3480156100b957600080fd5b506100c2610252565b6040516001600160a01b03909116815260200160405180910390f35b3480156100ea57600080fd5b506100786100f9366004610800565b6102a6565b61007861010c366004610821565b6103b8565b61007861011f3660046108fb565b610458565b34801561013057600080fd5b506100c2610554565b61014161059a565b61015f61015a6000805160206109ea8339815191525490565b6105a2565b565b6000805160206109ca833981519152546001600160a01b0316336001600160a01b0316141561019857610193816105c6565b6101a0565b6101a0610139565b50565b6000805160206109ca833981519152546001600160a01b0316336001600160a01b03161415610245576101d5836105c6565b6000836001600160a01b031683836040516101f1929190610947565b600060405180830381855af49150503d806000811461022c576040519150601f19603f3d011682016040523d82523d6000602084013e610231565b606091505b505090508061023f57600080fd5b5061024d565b61024d610139565b505050565b600061026a6000805160206109ca8339815191525490565b6001600160a01b0316336001600160a01b0316141561029b576000805160206109ea833981519152545b90506102a3565b6102a3610139565b90565b6000805160206109ca833981519152546001600160a01b0316336001600160a01b03161415610198576001600160a01b0381166103495760405162461bcd60e51b815260206004820152603660248201527f43616e6e6f74206368616e6765207468652061646d696e206f6620612070726f604482015275787920746f20746865207a65726f206164647265737360501b60648201526084015b60405180910390fd5b7f7e644d79422f17c01e4894b5f4f588d331ebfa28653d42ae832dc59e38c9798f6103806000805160206109ca8339815191525490565b604080516001600160a01b03928316815291841660208301520160405180910390a1610193816000805160206109ca83398151915255565b60006103d06000805160206109ea8339815191525490565b6001600160a01b0316146103e357600080fd5b6103ed8382610458565b61041860017fb53127684a568b3173ae13b9f8a6016e243e63b6e8ee1178d6a717850b5d6104610990565b6000805160206109ca8339815191521461044257634e487b7160e01b600052600160045260246000fd5b61024d826000805160206109ca83398151915255565b60006104706000805160206109ea8339815191525490565b6001600160a01b03161461048357600080fd5b6104ae60017f360894a13ba1a3210667c828492db98dca3e2076cc3735a920a3ca505d382bbd610990565b6000805160206109ea833981519152146104d857634e487b7160e01b600052600160045260246000fd5b6104e182610606565b805115610550576000826001600160a01b0316826040516105029190610957565b600060405180830381855af49150503d806000811461053d576040519150601f19603f3d011682016040523d82523d6000602084013e610542565b606091505b505090508061024d57600080fd5b5050565b600061056c6000805160206109ca8339815191525490565b6001600160a01b0316336001600160a01b0316141561029b576000805160206109ca83398151915254610294565b61015f610693565b3660008037600080366000845af43d6000803e8080156105c1573d6000f35b3d6000fd5b6105cf81610606565b6040516001600160a01b038216907fbc7cd75a20ee27fd9adebab32041f755214dbc6bffa90cc0225b39da2e5c2d3b90600090a250565b61060f81610724565b6106815760405162461bcd60e51b815260206004820152603b60248201527f43616e6e6f742073657420612070726f787920696d706c656d656e746174696f60448201527f6e20746f2061206e6f6e2d636f6e7472616374206164647265737300000000006064820152608401610340565b6000805160206109ea83398151915255565b6000805160206109ca833981519152546001600160a01b0316336001600160a01b0316141561071f5760405162461bcd60e51b815260206004820152603260248201527f43616e6e6f742063616c6c2066616c6c6261636b2066756e6374696f6e20667260448201527137b6903a343290383937bc3c9030b236b4b760711b6064820152608401610340565b61015f565b6000813f7fc5d2460186f7233c927e7db2dcc703c0e500b653ca82273b7bfad8045d85a47081811480159061075857508115155b925050505b919050565b80356001600160a01b038116811461075d57600080fd5b600082601f830112610789578081fd5b813567ffffffffffffffff808211156107a4576107a46109b3565b604051601f8301601f19908116603f011681019082821181831017156107cc576107cc6109b3565b816040528381528660208588010111156107e4578485fd5b8360208701602083013792830160200193909352509392505050565b600060208284031215610811578081fd5b61081a82610762565b9392505050565b600080600060608486031215610835578182fd5b61083e84610762565b925061084c60208501610762565b9150604084013567ffffffffffffffff811115610867578182fd5b61087386828701610779565b9150509250925092565b600080600060408486031215610891578283fd5b61089a84610762565b9250602084013567ffffffffffffffff808211156108b6578384fd5b818601915086601f8301126108c9578384fd5b8135818111156108d7578485fd5b8760208285010111156108e8578485fd5b6020830194508093505050509250925092565b6000806040838503121561090d578182fd5b61091683610762565b9150602083013567ffffffffffffffff811115610931578182fd5b61093d85828601610779565b9150509250929050565b6000828483379101908152919050565b60008251815b81811015610977576020818601810151858301520161095d565b818111156109855782828501525b509190910192915050565b6000828210156109ae57634e487b7160e01b81526011600452602481fd5b500390565b634e487b7160e01b600052604160045260246000fdfeb53127684a568b3173ae13b9f8a6016e243e63b6e8ee1178d6a717850b5d6103360894a13ba1a3210667c828492db98dca3e2076cc3735a920a3ca505d382bbca2646970667358221220c89c1b07aad189dbe7b1ecd2774fb4ce8e403034b82bbc9b4282c7afd47572ef64736f6c63430008020033",
  "linkReferences": {},
  "deployedLinkReferences": {}
}